:020000040800F2
:10000000008000201D300008C1140008C31400083F
:10001000C5140008C7140008C91400080000000037
:10002000000000000000000000000000CB140008E9
:10003000CD14000800000000CF140008E1140008EF
:100040006D3000086D3000086D3000086D3000081C
:100050006D3000086D3000086D3000086D3000080C
:100060006D3000086D3000086D3000086D300008FC
:100070006D3000086D3000086D3000086D300008EC
:100080006D300008000000006D300008DD1400082D
:10009000D11400086D3000086D3000086D30000884
:1000A0006D3000086D3000086D3000086D300008BC
:1000B0006D3000086D3000086D3000086D300008AC
:1000C0006D3000086D3000086D3000086D3000089C
:1000D0006D3000086D3000086D3000086D3000088C
:1000E0006D3000086D3000086D3000086D3000087C
:1000F0006D3000086D3000086D3000080000000011
:10010000000000006D300008000000006D300008A5
:100110006D300008000000006D3000086D300008F0
:100120006D3000086D3000086D3000086D3000083B
:100130006D30000800000000000000006D30000875
:100140006D3000086D300008000000000000000065
:10015000000000000000000000000000000000009F
:100160000000000000000000000000006D300008EA
:100170006D300008000000000000000000000000DA
:10018000000000006D3000080000000000000000CA
:10019000000000000000000000000000000000005F
:1001A00000000000000000006D3000086D30000805
:1001B0006D3000086D3000086D3000080000000050
:1001C000000000006D30000800000000000000008A
:0801D0006D3000086D300008DD
:1002000010B5054C237833B9044B13B10448AFF350
:1002100000800123237010BDD405002000000000E1
:100220002C5F000808B5034B1BB103490348AFF32B
:10023000008008BD00000000D80500202C5F0008E9
:1002400081F0004102E000BF83F0004330B54FEA87
:1002500041044FEA430594EA050F08BF90EA020FF4
:100260001FBF54EA000C55EA020C7FEA645C7FEA87
:10027000655C00F0E2804FEA5454D4EB5555B8BFAA
:100280006D420CDD2C4480EA020281EA030382EA1B
:10029000000083EA010180EA020281EA0303362DAD
:1002A00088BF30BD11F0004F4FEA01314FF4801C80
:1002B0004CEA113102D0404261EB410113F0004F92
:1002C0004FEA03334CEA133302D0524263EB430349
:1002D00094EA050F00F0A780A4F10104D5F1200EE7
:1002E0000DDB02FA0EFC22FA05F2801841F1000142
:1002F00003FA0EF2801843FA05F359410EE0A5F116
:1003000020050EF1200E012A03FA0EFC28BF4CF046
:10031000020C43FA05F3C01851EBE37101F00045FC
:1003200007D54FF0000EDCF1000C7EEB00006EEB09
:100330000101B1F5801F1BD3B1F5001F0CD3490893
:100340005FEA30004FEA3C0C04F101044FEA4452EA
:1003500012F5800F80F09A80BCF1004F08BF5FEA71
:10036000500C50F1000041EB045141EA050130BD51
:100370005FEA4C0C404141EB010111F4801FA4F1F4
:100380000104E9D191F0000F04BF01460020B1FA49
:1003900081F308BF2033A3F10B03B3F120020CDA81
:1003A0000C3208DD02F1140CC2F10C0201FA0CF05F
:1003B00021FA02F10CE002F11402D8BFC2F1200CC4
:1003C00001FA02F120FA0CFCDCBF41EA0C0190407A
:1003D000E41AA2BF01EB0451294330BD6FEA0404C3
:1003E0001F3C1CDA0C340EDC04F11404C4F12002AE
:1003F00020FA04F001FA02F340EA030021FA04F3C0
:1004000045EA030130BDC4F10C04C4F1200220FA16
:1004100002F001FA04F340EA0300294630BD21FA54
:1004200004F0294630BD94F0000F83F4801306BF1A
:1004300081F480110134013D4EE77FEA645C18BF0E
:100440007FEA655C29D094EA050F08BF90EA020FA5
:1004500005D054EA000C04BF1946104630BD91EA9D
:10046000030F1EBF0021002030BD5FEA545C05D1A0
:100470004000494128BF41F0004130BD14F58004DF
:100480003CBF01F5801130BD01F0004545F0FE4153
:1004900041F470014FF0000030BD7FEA645C1ABF88
:1004A000194610467FEA655C1CBF0B46024650EABF
:1004B000013406BF52EA033591EA030F41F40021EB
:1004C00030BD00BF90F0000F04BF0021704730B571
:1004D0004FF4806404F132044FF000054FF0000146
:1004E00050E700BF90F0000F04BF0021704730B507
:1004F0004FF4806404F1320410F0004548BF4042DC
:100500004FF000013EE700BF42004FEAE2014FEA30
:1005100031014FEA02701FBF12F07F4393F07F4F0B
:1005200081F06051704732F07F4208BF704793F00E
:100530007F4F04BF41F40021704730B54FF4607421
:1005400001F0004521F000411CE700BF50EA010224
:1005500008BF704730B54FF000050AE050EA0102CD
:1005600008BF704730B511F0004502D5404261EB3D
:1005700041014FF4806404F132045FEA915C3FF47E
:10058000D8AE4FF003025FEADC0C18BF03325FEA1B
:10059000DC0C18BF033202EBDC02C2F1200300FACC
:1005A00003FC20FA02F001FA03FE40EA0E0021FAF1
:1005B00002F11444BDE600BF70B54FF0FF0C4CF4DF
:1005C000E06C1CEA11541DBF1CEA135594EA0C0F91
:1005D00095EA0C0F00F0DEF82C4481EA030621EACC
:1005E0004C5123EA4C5350EA013518BF52EA033507
:1005F00041F4801143F4801338D0A0FB02CE4FF0B9
:100600000005E1FB02E506F00042E0FB03E54FF0E8
:100610000006E1FB03569CF0000F18BF4EF0010EE0
:10062000A4F1FF04B6F5007F64F5407404D25FEADC
:100630004E0E6D4146EB060642EAC62141EA55518F
:100640004FEAC52040EA5E504FEACE2EB4F1FD0CD1
:1006500088BFBCF5E06F1ED8BEF1004F08BF5FEA4F
:10066000500E50F1000041EB045170BD06F0004601
:1006700046EA010140EA020081EA0301B4EB5C04AE
:10068000C2BFD4EB0C0541EA045170BD41F48011A6
:100690004FF0000E013C00F3AB8014F1360FDEBFCB
:1006A000002001F0004170BDC4F10004203C35DAA7
:1006B0000C341BDC04F11404C4F1200500FA05F32A
:1006C00020FA04F001FA05F240EA020001F00042CB
:1006D00021F0004110EBD37021FA04F642EB060141
:1006E0005EEA430E08BF20EAD37070BDC4F10C046B
:1006F000C4F1200500FA04F320FA05F001FA04F22F
:1007000040EA020001F0004110EBD37041F100011A
:100710005EEA430E08BF20EAD37070BDC4F1200525
:1007200000FA05F24EEA020E20FA04F301FA05F28D
:1007300043EA020321FA04F001F0004121FA04F235
:1007400020EA020000EBD3705EEA430E08BF20EA05
:10075000D37070BD94F0000F0FD101F0004640003F
:1007600041EB010111F4801F08BF013CF7D041EAC1
:10077000060195F0000F18BF704703F000465200C5
:1007800043EB030313F4801F08BF013DF7D043EA96
:100790000603704794EA0C0F0CEA135518BF95EA4C
:1007A0000C0F0CD050EA410618BF52EA4306D1D1D3
:1007B00081EA030101F000414FF0000070BD50EAF2
:1007C000410606BF1046194652EA430619D094EA7C
:1007D0000C0F02D150EA013613D195EA0C0F05D166
:1007E00052EA03361CBF104619460AD181EA0301BA
:1007F00001F0004141F0FE4141F470014FF0000072
:1008000070BD41F0FE4141F4780170BD70B54FF00C
:10081000FF0C4CF4E06C1CEA11541DBF1CEA13558C
:1008200094EA0C0F95EA0C0F00F0A7F8A4EB05046E
:1008300081EA030E52EA03354FEA013100F0888065
:100840004FEA03334FF0805545EA131343EA12632E
:100850004FEA022245EA111545EA10654FEA0026E3
:100860000EF000419D4208BF964244F1FD0404F59C
:10087000407402D25B084FEA3202B61A65EB0305F8
:100880005B084FEA32024FF480104FF4002CB6EBB5
:10089000020E75EB030E22BFB61A754640EA0C0035
:1008A0005B084FEA3202B6EB020E75EB030E22BF75
:1008B000B61A754640EA5C005B084FEA3202B6EBB6
:1008C000020E75EB030E22BFB61A754640EA9C0075
:1008D0005B084FEA3202B6EB020E75EB030E22BF45
:1008E000B61A754640EADC0055EA060E18D04FEA03
:1008F000051545EA16754FEA06164FEAC30343EAA3
:1009000052734FEAC2025FEA1C1CC0D111F4801F6F
:100910000BD141EA00014FF000004FF0004CB6E768
:1009200011F4801F04BF01430020B4F1FD0C88BF07
:10093000BCF5E06F3FF6AFAEB5EB030C04BFB6EB12
:10094000020C5FEA500C50F1000041EB045170BD05
:100950000EF0004E4EEA113114EB5C04C2BFD4EB32
:100960000C0541EA045170BD41F480114FF0000EB6
:10097000013C90E645EA060E8DE60CEA135594EA32
:100980000C0F08BF95EA0C0F3FF43BAF94EA0C0F35
:100990000AD150EA01347FF434AF95EA0C0F7FF4AA
:1009A00025AF104619462CE795EA0C0F06D152EAFE
:1009B00003353FF4FDAE1046194622E750EA4106E2
:1009C00018BF52EA43067FF4C5AE50EA41047FF4F3
:1009D0000DAF52EA43057FF4EBAE12E74FF0FF3C58
:1009E00006E000BF4FF0010C02E000BF4FF0010C29
:1009F0004DF804CD4FEA410C7FEA6C5C4FEA430CA2
:100A000018BF7FEA6C5C1BD001B050EA410C0CBFF0
:100A100052EA430C91EA030F02BF90EA020F002052
:100A2000704710F1000F91EA030F58BF994208BFB9
:100A300090422CBFD8176FEAE37040F00100704776
:100A40004FEA410C7FEA6C5C02D150EA013C07D1CD
:100A50004FEA430C7FEA6C5CD6D152EA033CD3D018
:100A60005DF8040B704700BF8446104662468C4612
:100A70001946634600E000BF01B5FFF7B7FF002845
:100A800048BF10F1000F01BD4DF808EDFFF7F4FF6E
:100A90000CBF012000205DF808FB00BF4DF808EDF9
:100AA000FFF7EAFF34BF012000205DF808FB00BF1C
:100AB0004DF808EDFFF7E0FF94BF012000205DF83E
:100AC00008FB00BF4DF808EDFFF7CEFF94BF0120F3
:100AD00000205DF808FB00BF4DF808EDFFF7C4FFEC
:100AE00034BF012000205DF808FB00BF4FEA41023F
:100AF00012F5001215D211D56FF47873B3EB625270
:100B000012D94FEAC12343F0004343EA505311F096
:100B1000004F23FA02F018BF404270474FF0000028
:100B2000704750EA013005D111F0004008BF6FF066
:100B3000004070474FF00000704700BF4A0011D2DC
:100B400012F5001211D20DD56FF47873B3EB625227
:100B50000ED44FEAC12343F0004343EA505323FA33
:100B600002F070474FF00000704750EA013002D1A8
:100B70004FF0FF3070474FF00000704753B94AB94B
:100B8000002908BF00281CBF4FF0FF314FF0FF3095
:100B900000F074B9ADF1080C6DE904CE00F006F870
:100BA000DDF804E0DDE9022304B070472DE9F047E9
:100BB000089E04468846002B40F085808A421546F0
:100BC00048D9B2FA82F24AB1C2F1200701FA02F31F
:100BD00020FA07F7954047EA030894404FEA154E7C
:100BE000230CB8FBFEF71FFA85FC0EFB178843EABF
:100BF000084307FB0CF1994209D9EB1807F1FF30C4
:100C000080F0E380994240F2E080023F2B445B1A7F
:100C1000A4B2B3FBFEF00EFB103344EA034400FB26
:100C20000CFCA44509D92C1900F1FF3380F0CB80CE
:100C3000A44540F2C88002382C4440EA0740A4EBA7
:100C40000C0400271EB1D4400023C6E900433946F6
:100C5000BDE8F087002A53D0B2FA82F2002A40F0B1
:100C6000B680491B4FEA154E1FFA85F80127B1FBE4
:100C7000FEFC230C0EFB1C1143EA014308FB0CF1A4
:100C8000994207D9EB180CF1FF3002D2994200F2D9
:100C9000EC808446591AA3B2B1FBFEF00EFB10148F
:100CA00043EA044408FB00F8A04507D92C1900F1D9
:100CB000FF3302D2A04500F2DC801846A4EB080402
:100CC00040EA0C40BEE78B4208D9002E78D00027BE
:100CD000C6E9000138463946BDE8F087B3FA83F724
:100CE0007FB98B4202D3824200F2BD80841A61EB4D
:100CF000030301209846002EA9D0C6E90048A6E7C4
:100D0000FFDEC7F12005BB4022FA05FC4CEA030CCC
:100D100001FA07F420FA05F821FA05F34FEA1C4E10
:100D200048EA0404B3FBFEF9210C0EFB19331FFA49
:100D30008CF841EA034309FB08FA9A4502FA07F2E4
:100D400000FA07F10BD91CEB030309F1FF3080F027
:100D500088809A4540F28580A9F102096344A3EB9B
:100D60000A03A4B2B3FBFEF00EFB103344EA0344C3
:100D700000FB08F8A04508D91CEB040400F1FF3380
:100D80006BD2A04569D90238644440EA0940A4EB1B
:100D90000804A0FB02894C45C6464B4654D351D0AB
:100DA000002E69D0B1EB0E0264EB030404FA05F5E2
:100DB00022FA07F3FC401D43C6E90054002746E72A
:100DC0003746304643E7184637E707461FE7C2F184
:100DD000200320FA03F7954001FA02F021FA03F309
:100DE0004FEA154E3843010CB3FBFEF71FFA85F8A6
:100DF0000EFB173341EA034107FB08F38B4204FA69
:100E000002F407D9691807F1FF3C28D28B4226D992
:100E1000023F2944CB1A81B2B3FBFEF00EFB103324
:100E200041EA034100FB08F38B4207D9691800F13E
:100E3000FF3C10D28B420ED902382944C91A40EA2D
:100E4000074714E74145ABD2B8EB020E69EB0C0241
:100E500001381346A4E76046F0E7184695E7674671
:100E6000D8E781467BE7384645E7ACF1020C2B44D6
:100E700010E702382C4421E73746E8E6704700BF08
:100E800090F800F06DE9024520F007016FF0000CCA
:100E900010F0070491F820F040F049804FF0000472
:100EA0006FF00700D1E9002391F840F000F108004D
:100EB00082FA4CF2A4FA8CF283FA4CF3A2FA8CF385
:100EC0004BBBD1E9022382FA4CF200F10800A4FAEC
:100ED0008CF283FA4CF3A2FA8CF3E3B9D1E9042340
:100EE00082FA4CF200F10800A4FA8CF283FA4CF377
:100EF000A2FA8CF37BB9D1E9062301F1200182FA31
:100F00004CF200F10800A4FA8CF283FA4CF3A2FA36
:100F10008CF3002BC6D0002A04BF04301A4612BA44
:100F2000B2FA82F2FDE8024500EBD2007047D1E947
:100F3000002304F00305C4F100004FEAC50514F0D6
:100F4000040F91F840F00CFA05F562EA05021CBFA7
:100F500063EA050362464FF00004A9E770B50D4E41
:100F60000D4D761BB61006D00024013455F8043B15
:100F70009847A642F9D1094E094D761B04F0D6FFD9
:100F8000B61006D00024013455F8043B9847A64219
:100F9000F9D170BD9C6000089C600008A460000846
:100FA0009C600008F0B4860746D0541E002A3CD04E
:100FB000CAB2034602E014F1FF3436D303F8012B22
:100FC0009D07F8D1032C29D9CDB245EA05250F2C70
:100FD00045EA054533D9A4F11006360903F1200787
:100FE00007EB061703F1100242E9045542E90255E6
:100FF0001032BA42F8D1721C14F00C0F03EB02123B
:1010000004F00F0613D0331F23F0030304331344FB
:1010100042F8045B9342FBD106F003042CB1C9B241
:101020001C4403F8011B9C42FBD1F0BC70473446C2
:101030001346002CF3D1F8E714460346C2E71A46DC
:101040002646E0E7024B13B1024800F005B87047AE
:101050000000000065100008002301461A461846EB
:1010600000F01EB838B50A4C0A4D641BA4100AD013
:1010700004F18043013B05EB8305013C55F804393D
:101080009847002CF9D1BDE8384004F055BF00BFA7
:10109000A8600008A4600008704700BF704700BF48
:1010A0002DE9F0411E4C0546206890461F460E462D
:1010B000FFF7F2FF1B4B1A68D2F8483133B35A6876
:1010C00020681F2A27DC4DB9911C01325A6043F871
:1010D0002160FFF7E3FF0020BDE8F08103EB820110
:1010E0000124C1F8888004FA02FED3F88841022D59
:1010F00044EA0E0CC3F888C1C1F80871E4D1D3F8F2
:101100008C114EEA0104C3F88C41DDE702F5A673A9
:10111000C2F84831D3E7FFF7C1FF4FF0FF30DBE7FC
:1011200028040020485F000870B5164E33783BBB9A
:10113000154C164863604FF44072C4E90223144A08
:10114000006812782274134A637401251268626180
:101150000E210222C4E909052046A374C4E9065100
:101160002262C4E90B12C4E90D33E36302F03EFDD1
:10117000204602F021FE3570BDE8704000F02ABA2A
:1011800070BD00BF312B0020F00500205406002068
:101190002C0400205806002010B5074C2378012BA2
:1011A00008D1064802F01EFE00232370BDE810405F
:1011B00000F0D8B910BD00BF312B0020F005002091
:1011C000064B1B78012B07D00228054B0CBF0522CC
:1011D00002221A6000F0C6B9704700BF312B002010
:1011E00054060020134B1B78012B21D0124B0928E9
:1011F0001CD8DFE800F0050A0D11131517191B0F95
:101200004FF47A721A6000F0ADB94FF4FA72F9E750
:10121000C822F7E77822F5E76422F3E75022F1E7E6
:101220002822EFE71422EDE70722EBE70A22E9E79D
:10123000704700BF312B002058060020314B2DE9AC
:10124000F0419A6D304F42F000729A659A6D8AB003
:1012500002F000720192019ADA6C42F00202DA6442
:10126000DA6C02F002020292029ADA6C42F0040294
:10127000DA64DA6C02F004020392039ADA6C42F048
:101280000102DA64DB6C03F001030024012502266D
:10129000049305A94FF09040049BCDE90555CDE995
:1012A000076403F0BFF8224629464FF0904003F050
:1012B0008BF94FF4005805A93846CDE90585CDE9ED
:1012C000076403F0AFF82A464146384603F07CF93C
:1012D0004FF4407305A9CDE905360C48092309935D
:1012E000CDE9074403F09EF80420FFF77BFF30466A
:1012F000FFF766FF064B074A1A60074B1C700AB0DF
:10130000BDE8F081001002400008004800040048D9
:10131000F005002000640040312B0020064B1B78B4
:10132000012B07D00028054B14BF02220022DA60EF
:1013300000F018B9704700BF312B0020F0050020E5
:10134000054B1B78012B06D00030044B18BF012041
:10135000187000F007B97047312B00202C040020D2
:101360002DE9F0411D4E06F5C85741F602123B88A3
:10137000B25A013303F03F0393420546884604D135
:10138000042000F077F8012021E0C06801F0E8F8BF
:1013900040288646F7D80FCDB7F800C0242404FBB8
:1013A0000C6404F580540FC40FCD0FC42B68236068
:1013B00006EB8C160023DAB2964503F1010308D838
:1013C0000CF1010C0CF03F0CA7F800C00020BDE8A8
:1013D000F08118F80210B154EDE700BF5C06002060
:1013E00070B5124D124C05F5C856228833889A42C2
:1013F00003D0104802F00AFE00B970BD22880D48E3
:10140000242101FB025101F5805105EB821202F00B
:101410001DFD2388013303F03F03238010B1022018
:1014200000F028F800F09EF8DFE700BF5C0600201F
:101430005E1F0020F005002010B50B46024640213B
:10144000034802F06DFD044600F0C4F8204610BDCC
:10145000F005002008B5054B187830B1402104484C
:1014600002F0CAFD003018BF012008BD312B00205A
:10147000F0050020062810B504460ED802F02CFB1B
:10148000064B43F8240002F027FB054B1860054B80
:1014900001201A68A0401043186010BD6C1F002086
:1014A000641F0020681F0020014B1868704700BFB0
:1014B000641F0020014B1868704700BF681F0020A0
:1014C0007047FEE7FEE7FEE7FEE7704770477047AC
:1014D000014803F099B900BFF82D0020FFF7F8BFCD
:1014E00008B502F0EDFABDE8084002F07ABB000052
:1014F0001A4B70B5DA6C42F00102DA64DA6C88B02B
:1015000002F001020192019ADA6C42F00202DA64FE
:10151000DB6C03F00203029301240025029B059477
:101520004FF4004303A94FF09040CDE90334CDE9D7
:10153000065502F077FFCDE905450795084D4FF4B4
:10154000006603A92846CDE9036402F06BFF22463A
:101550003146284603F038F808B070BD001002404C
:101560000004004838B50A4C25687DB902F0B4FA89
:10157000084B1B68C01A192808D92A464FF4006185
:10158000054803F021F802F0A7FA206038BD00BF3B
:101590009C1F0020981F00200004004838B5054615
:1015A0000024AC4200D138BD01224FF400414FF07D
:1015B000904003F009F8642002F094FA00224FF4FE
:1015C00000414FF0904002F0FFFF642002F08AFAE1
:1015D0000134E6E710B50A4C236883B902F07CFABF
:1015E000084B1B68C01A192809D901224FF4004181
:1015F0004FF0904002F0E8FF02F06EFA206010BD5C
:10160000941F0020901F002010B5FFF74DFF48B336
:1016100002F062FA0446FFF747FF201AB0F5FA6FAE
:1016200020D22C4C02F058FA2368C01A962818D9F8
:1016300002F052FA2060284C4FF4004122784FF01B
:10164000904002F0C1FF227824484FF4006102F07C
:10165000BBFF2378B3FA83F35B092370204B01228D
:101660001A7010BD1E4C23783BB101224FF400616B
:101670001A4802F0A9FF002323701A4C236893B183
:1016800002F02AFA2368C01A19280CD900224FF454
:1016900000414FF0904002F097FF0023236002F0DA
:1016A0001BFA114B1860114C2368002BD9D002F0A3
:1016B00013FA2368C01A1928D3D901224FF4006104
:1016C000064802F081FF0023236002F005FA084B70
:1016D0001860C6E78C1F0020881F00200004004807
:1016E000891F0020941F0020901F00209C1F0020B5
:1016F000981F002000B5C3B001F0DAF8FFF79EFD97
:10170000FFF7F6FE01F098F90220FFF747FF4022AD
:1017100000210BA8FFF746FCFFF776FFFFF760FEFE
:1017200001F038FA4020FFF795FE0028F4D00BA90D
:1017300001A8FFF781FE0028EED101A90BAA1BA882
:1017400000F064FF011EE7DD89B21BA801F0F8F983
:10175000E2E79A4238BF8854704770472DE9F84F46
:10176000DDF834A00B9C1AF0030F07468846154697
:1017700099461CD00A9E26441444A24219D11AF05C
:10178000020F05D0561B0C9BB34205EB060419D87B
:101790002046BDE8F88F02F1010B4B464146202060
:1017A000B8475A460C99B3189942F4D8E2E7A61AFA
:1017B000F8E702F1010B4B46414616F8010DB84718
:1017C0005A46DAE74B46224641462020B8470136C2
:1017D000D9E72DE9F047DDE90D7616F0020FDDE9D6
:1017E00008549DF828E0DDE90BC81FD106F0010977
:1017F0004FB1B9F1000F06D0BEF1000F02D116F0C3
:101800000C0F00D0013F4FF0300A02E005F804A0B1
:101810000134444501D2202CF8D14FF0300AB9F1FF
:10182000000F03D0BC4201D21F2C34D916F0100F88
:101830001FD016F4806F33D194B3444501D0BC421D
:101840002ED1B4F101082AD0BCF1100F33D1023CE3
:1018500016F0200F31D11F2C15D84FF0780C05F859
:1018600004C001341F2C0ED84FF0300C05F804C012
:1018700001341F2C07D8BEF1000F23D04FF02D0CE0
:1018800005F804C00134CDE90A76CDE90854BDE875
:10189000F047FFF763BF05F804A00134BFE74446F3
:1018A000BCF1100FD4D0BCF1020FDBD11F2CEAD851
:1018B0004FF0620CD3E74446F5E71F2CE3D84FF016
:1018C000580CCCE716F0040F02D04FF02B0CD7E7E2
:1018D00016F0080FD7D04FF0200CD1E72DE9F043D8
:1018E00091B0189D1A9E1D9F0DB927F010077C0519
:1018F00000D50DB317F0200FAC460DF1200E4FF0C0
:10190000000514BF4FF037084FF05708BCFBF6F93D
:1019100006FB19C95FFA89F4B9F1090F94BF303495
:101920004444E4B2B4450EF8014BBCFBF6F405F1B7
:10193000010501D3202D10D11C9C05941B9C0697FA
:10194000CDE903649DF86440CDE9015408AC0094EE
:10195000FFF73FFF11B0BDE8F083A446D6E72DE9BD
:10196000F04F93B0DDE91C89249D9A4658EA09039B
:1019700008BF25F010056B050746CDE9081202D512
:1019800058EA09033AD015F0200F0AAE4FF00004D0
:1019900014BF4FF0370B4FF0570BDDE920234046C3
:1019A0004946FFF7EBF8D2B2092A94BF30325A44C5
:1019B000D2B206F8012BDDE92023994508BF9045F6
:1019C00004F1010401D3202C15D1239B0593229B04
:1019D0000493209B03939DF878300695CDE901434D
:1019E0000AAB0093DDE9081253463846FFF7F1FED3
:1019F00013B0BDE8F08F80468946CEE70024E4E7C7
:101A00002DE9F04F97B092469B46DDE92023CDE9C2
:101A1000070110461946DDE92257249EFFF734F8E6
:101A200060B90323CDE902760193A94B0093524696
:101A30005B46DDE90701FFF791FE41E04FF0FF3221
:101A40006FF48013DDE92001FFF728F828B10423A3
:101A50000193CDE902769F4BE8E74FF0FF329E4BB2
:101A6000DDE92001FFF738F868B19C4A06F004036D
:101A7000002B08BF03229A4B1CBF13460422CDE95A
:101A800002760192D2E78EA3D3E90023DDE920019B
:101A9000FFF722F838B98CA3D3E90023DDE9200150
:101AA000FEF7FCFF78B1DDE92034CDE90376CDE91E
:101AB000003402955B465246DDE9070100F018F953
:101AC00017B0BDE8F08F00220023DDE92001FEF70A
:101AD000E5FF00287AD0DDE9202300200021FEF771
:101AE000B3FBCDE920010123099316F4806F08BFF1
:101AF00006250EABA5F12002A8463021B8F1090F4A
:101B0000A5EB080406D908F1FF38424503F8011B8C
:101B1000F4D12024DDE92001FEF7E8FF714B03EB4F
:101B2000C803D3E900230546CDE90A23FEF7DAFC12
:101B300002460B46DDE92001FEF786FBDDE90A23BC
:101B4000FEF73AFDCDE90C01FEF7F8FF8146FEF7FE
:101B5000B9FC02460B46DDE90C01FEF775FB0022DD
:101B6000614BCDE90C01FEF7B7FF88B309F101091C
:101B70004846FEF7A7FC02460B46DDE90A01FEF7E0
:101B800097FF10B101354FF00009B8F1000F4ED1A9
:101B90002846FEF7A7FC02460B46DDE92001FEF7CA
:101BA00053FB0022504B80468946FEF777FF30B149
:101BB00000224D4B40464946FEF78EFF10B1E80724
:101BC00000D501350EAB23440A2253E009908CE77F
:101BD0000022454BDDE90C01FEF760FF0028D4D15F
:101BE000B9F1000F02D019F0010FCED009F10109AF
:101BF000CBE7B9FBF1F001FB10923032B9F1090FDC
:101C000008F1FF3804F1010403F8012B22D8A044A5
:101C10000EAA3021202C0FD0444504F101031BD122
:101C200016AA14442E2204F8202C1C46CAE70EAB38
:101C300023440A21202CDCD106F00303012B0EAB38
:101C400025D127B3099A12B916F00C0F00D0013F25
:101C5000302214E08146EDE7A1541C46DAE795FBFB
:101C6000F2F102FB1155303503F8015B01340D46EA
:101C70000029E1D0202CF2D1DEE71A550134A74229
:101C800005D9202CF9D1CDE902760194CEE6202C9D
:101C9000F9D0099A32B116AA22442D2102F8201C4B
:101CA0000134F0E7710703D516AA22442B21F5E78A
:101CB0003207E8D516AA22442021EFE7AFF30080CF
:101CC0000000000065CDCD410000000065CDCDC114
:101CD000555F0008595F0008FFFFEF7F505F000865
:101CE0004C5F0008605F00080000E03F000000005B
:101CF0002DE9F04F93B0CDE90A32DDE91CB306932C
:101D0000DDE91E730E93209B0793CDE908015A4627
:101D1000069B06995846FEF7B7FE80B14FF0FF329A
:101D2000C94B06995846FEF7D7FE40B94FF0FF322F
:101D30006FF4801358460699FEF7B0FE88B1079BF2
:101D400020930E9BCDE91E73069B5A46CDE91C23BA
:101D5000DDE90801DDE90A3213B0BDE8F04FFFF715
:101D60004FBE0022002358460699FEF797FE002832
:101D700000F04481069B5C4603F10045079BC5F3D8
:101D80000A5013F48063A0F2FF3008BF06270F93B8
:101D9000FEF7A8FB9CA3D3E90023FEF70DFC9CA350
:101DA000D3E90023FEF752FAC5F313068A4646F03C
:101DB0007F5181460022A54B204641F44011FEF799
:101DC00043FA95A3D3E90023FEF7F6FB02460B4640
:101DD00048465146FEF73AFAFEF788FE8246FEF77D
:101DE00081FB8FA3D3E9002380468946FEF7E4FBFD
:101DF0000022974BFEF72AFAFEF778FE8AA3D3E972
:101E00000023064649464046FEF7D6FB804630464C
:101E10008946FEF767FB86A3D3E90023FEF7CCFBD8
:101E200002460B4640464946FEF70EFA02460B466E
:101E3000CDE90C01FEF7C0FBDDE90C2380468946A5
:101E400010461946FEF702FA0022CDE91001814B37
:101E500040464946FEF7DAFC00227F4BFEF7F6F9D2
:101E600002460B4640464946FEF7D0FC00227B4B1B
:101E7000FEF7ECF902460B4640464946FEF7C6FC23
:101E8000DDE90C238046894600204FF08041FEF7B3
:101E9000DBF902460B4640464946FEF7D7F90246B3
:101EA0000B46DDE91001FEF7B1FC06F2FF36002219
:101EB0006B4BFEF7CBF900223305FEF77DFB804626
:101EC000894602460B4620462946FEF7E7FD0028D4
:101ED00040F0C880CDE90C890AF16303C72B079B4A
:101EE00034BF04260526190522D553A3D3E90023C0
:101EF00020462946FEF7E6FD002800F0BE8050A3EC
:101F0000D3E9002320462946FEF7C8FD002800F04B
:101F1000B480079BBA45B8BFA7EB0A0743F48063B8
:101F20004FF00006B4BF07F1FF3700270793B24612
:101F30000E9BB34288BFA3EB0608079B98BF4FF0E8
:101F4000000813F0020903D0002E18BF4FF000085C
:101F5000BAF1000F07D020462946DDE90C23FEF731
:101F600055FC04460D460022002358460699FEF70C
:101F700095FD10B105F100431D46079B029723F420
:101F800000632246CDE903832B46CDE90023DDE93A
:101F90000801DDE90A32FFF733FD66B3079B0999B3
:101FA000089D13F0200F00F1010402460A9B14BFA4
:101FB00045206520A8470523002205938AEAEA7791
:101FC0000A23CDE90232013E4FEADA73A7EBEA7742
:101FD0000193049600970A9B2246DDE90801FFF76A
:101FE0007DFCB9F1000F06D00B9BC41A0B9B18198E
:101FF0000E9BA3424AD813B0BDE8F08F069B5C4607
:102000001D46BBE6AFF30080FB799F501344D33FDE
:10201000B3C8608B288AC63F61436F63A787D23FEE
:1020200071A379094F930A401655B5BBB16B0240B5
:10203000EF39FAFE422EE63F2D431CEBE2361A3F03
:102040000000000080842E41FFFFEF7F0000F83F7A
:102050000000E03F00002C40000024400000184039
:102060000000F03F00220D4B40464946FEF7CEFBF4
:102070000AF1FF3ACDE90C012EE7002F3FF458AFEB
:102080000F9B002B3FF454AF013F51E702460A9BE0
:102090000999089D2020A8470134A7E700002440A3
:1020A0002DE9F04F8FB0B1F10009189DBE4F904659
:1020B0009B4618BF074600269BF8000060B94645BE
:1020C0002CBF08F1FF323246434649460020B8474C
:1020D00030460FB0BDE8F08F25280BF1010B06D07C
:1020E0003246741C43464946B8472646E4E7002377
:1020F00006E02D2A15D0302A0CD143F001038B467F
:10210000594611F8012B2B2A0ED0F2D8202A0ED0D6
:10211000232A0FD0A2F1300009282CD800220A92DD
:1021200012E043F00203EAE743F00403E7E743F079
:102130000803E4E743F01003E1E70A980A2404FBEC
:102140000022303A0A928B46594611F8012BA2F12F
:1021500030000928F1D99BF800202E2A63D19BF882
:102160000110A1F1300009280BF1010243F4806352
:1021700050D8002413E02A2A09D155F8042B002A4C
:10218000BCBF524243F002030A928B46E3E70022AF
:102190000A92E0E70A2202FB0414303C0246104691
:1021A00010F8011BA1F1300CBCF1090FF2D9114656
:1021B00011F8010B6C2840D038D8682844D06A2820
:1021C0004BD011468B461BF8010B652800F012819D
:1021D00000F29480472800F00D8141D8452800F096
:1021E00009817FF67DAF462808BF43F020030493A2
:1021F0000A9BCDE90243073525F00705F5E80223E0
:102200004946CDE90023384643463246FFF7F8FBFE
:10221000064651E72A2907D155F8044B0BF1020273
:1022200024EAE474C3E75A460024C0E7742801D0C6
:102230007A28C6D143F48073C4E750786C28F9D16A
:1022400043F44073911CBDE75078682802D043F0F6
:102250008003B7E743F0C003F4E743F40073B1E74A
:10226000622803D1022223F00C0315E006D8582877
:102270007FF436AF43F020031022F4E7632800F028
:10228000D78064287FF42CAF692823F010034FF027
:102290000A0201D06428E6D1590548BF23F00103A2
:1022A000692803F4007101D064286ED1002950D050
:1022B000073525F00705AA4668685AF8081B0893F1
:1022C0000A9B0492CDE9064300294FF000030593D1
:1022D0000A464FEAD07370F100010293034602DA16
:1022E000524260EB4003CDE9002349464346324663
:1022F0003846FFF734FB06465546DDE66F2801D128
:102300000822B0E705D8672874D0FFF46CAF6928BD
:10231000B8E7732800F0BD8016D870287FF4E0AECF
:1023200043F0210305930823CDE903431022002342
:10233000CDE9013255F8043B009332464346494605
:102340003846FFF7CBFA63E775289DD0782893D0FD
:10235000C6E6D90505F1040A0DD5296805930A9B3F
:102360000292CDE9034300294FEAD1730193B8BF2C
:102370004942009126E013F0400F296801D0C9B20C
:10238000ECE71D0648BF09B2E8E779B108930A9B5C
:102390000492CDE906430735002325F0070A05938B
:1023A0000293FAE802239EE75B170008D80505F1BF
:1023B000040A0ED505930A9BCDE90112CDE903432A
:1023C0002B6800934346324649463846FFF786FA63
:1023D00091E713F0400F296808D0C9B205930A9B12
:1023E0000292CDE9034300230193C2E7180648BFD8
:1023F00089B2F3E700F0DF02472A04BF00F0FD00D6
:1024000043F40063452808BF43F0200304930A9B6C
:10241000CDE90243073525F00705F5E802234946D3
:10242000CDE90023384643463246FFF761FCEFE62C
:1024300013F002042BD0012332460B9355F8040B02
:1024400043464946C0B2561CB847002C3FF434AE50
:10245000DDE90A239342BFF42FAE43463246494694
:102460002020B8470B9B741C01330B932646EFE7E3
:10247000434649462020B8470AF102030B930A9BC2
:102480000AEB06020AF1010A5345F1D8D6E7A24643
:10249000F2E7AA46002C5AF8045B14BF21464FF01D
:1024A000FF3129442A46107808B1914210D113F423
:1024B0008061A2EB05020C9102D0A24228BF224605
:1024C00013F002030D9312D00B923246561B15E007
:1024D0000132E8E7434649462020B8470B9B591C88
:1024E0000B910A99994206EB0302F3D8EEE71346E3
:1024F000B61AF4E71C4643464946B847721915F820
:10250000010B28B10C9B002BF5D0631E002CF1D1E0
:102510000D9B1646002B3FF4EFAE0B9B9C1A06E07A
:102520003246434649462020B847751C2E460A9A33
:10253000A3199A42F4D8DFE60CB41FB506AA52F8E4
:10254000043B039200920A4601460448FFF7A8FDA7
:1025500005B05DF804EB02B0704700BF53170008E8
:10256000B0F5E02F3CD01BD8B0F5403F3AD00CD8A6
:10257000B0F5803F38D0B0F5003F37D0002808BF15
:10258000002018BF4FF0FF307047B0F5A02F2FD0BC
:10259000B0F5C02F2ED0B0F5802F08BF0420F0E793
:1025A000B0F5302F28D00AD8B0F5102F26D0B0F5CE
:1025B000202F25D0B0F5002F08BF0820E1E7B0F5A7
:1025C000502F1FD004D8B0F5402F08BF1820D8E7EF
:1025D000B0F5602F18D0B0F5702F08BF4020D0E7BD
:1025E0000720704703207047012070470220704782
:1025F0000520704706207047142070470C20704754
:10260000102070472020704730207047F8B50346EF
:102610001E46013803F19A04002500F8015FA0422C
:10262000FBD18869002839D18868002831D174200D
:1026300018704868B0F1804F09BF18780C682038CE
:10264000187012BF032008200C681D1804F00F0733
:1026500005F801799D424FEA1414F7D1841C01302A
:10266000CD891D54C868FFF77BFFC1B2402932D81D
:10267000002505F1010CEDB2611C854203EB040756
:10268000C9B212DB012294421AD80D233B700846CE
:10269000F8BDB0F1005FCCD17220C9E74869B0F550
:1026A000801F0CBF62206420C2E7575D3F091F55A1
:1026B000555D023405F00F055D54E4B26546D8E778
:1026C0007378092B94BF30333733DBB2013206F80D
:1026D000013FD2B2D7E74FF0FF30D9E770B5AAB0CB
:1026E000044624220D4601A80021FEF75BFC40228F
:1026F00000210AA8FEF756FC621C0121A9421FD343
:102700002378413B332B34D8DFE803F04AB42DA6BD
:102710005B6E33333333333343332833337130A970
:1027200033513377393333333333333333AD33A228
:1027300033333333333333333333333333743377E4
:102740001378602B05D9573B01311370C9B20132A0
:10275000D4E7402B8CBF373B303BF5E7FEF7E4FC7A
:1027600001202AB070BDFEF717FDF9E7607809284F
:1027700002D94FF0FF30F4E7FEF734FDF0E7607860
:10278000022803D1FEF71CFD0020EAE70528F0D15E
:10279000F8E76078012818BF0020FEF7BFFDF3E7D7
:1027A0006078012818BF0020FEF7CAFDECE73D4B1A
:1027B0001C682046FEF764FB81B2204600F0C0F999
:1027C000E2E7402200211AA8FEF7ECFBFEF772FEBA
:1027D00040210346344A1AA8FFF7AEFE1AA8FEF7B6
:1027E0004FFB81B21AA8E9E704213048E6E74FF031
:1027F000804302934FF000530393029BB3F1804F49
:1028000014BF0323082321461819002211F8015F81
:10281000884205EB0212F9D101925A1CA05C079A7A
:10282000B2F5001F2DD10F28A3D800040490FFF7A4
:1028300097FEC2B2402A9CD802330021CAB282421B
:1028400001F1010121DB0AA901A8FEF789FD9BE73F
:102850004FF400130793D0E74FF4001307934FF0A2
:1028600080430293C9E74FF480134FF40011CDE980
:102870000631C2E74FF480134FF40012CDE906325F
:10288000EDE7002AD1D10828CEE72AAD2A44E51881
:10289000E65C6D78023305EB061502F8805CDBB26E
:1028A000CCE700BF30040020B05F0008CB5F000819
:1028B000F0B5CBB001F0EEF8382200212BA8FEF7DE
:1028C00071FB1422002106A8FEF76CFB44220021B4
:1028D00039A8FEF767FB002002F072FA4FF480750A
:1028E0004023CDE92E532227022301250426552219
:1028F0002BA82B97CDE931533393CDE93462CDE941
:102900003633389302F0B8FA00B1FEE70F24032300
:10291000CDE908000A90082106A8CDE9064302F097
:10292000EBFC00B1FEE74FF4405339934FF00073D6
:10293000CDE9453039A802F0CBFD044600B1FEE7F1
:102940004FF000530C934BF67F330B900D90CDE975
:102950000E370BA82023109302F0F8FE22462146E2
:102960004FF0FF3001F0E4F82A4BDA6C42F020021D
:10297000DA64DA6C02F020020192019ADA6C42F019
:102980000102DA64DA6C02F001020292029ADA6C55
:1029900042F00202DA64DA6C02F002020392039A55
:1029A000DA6C42F00402DA64DA6C02F00402049297
:1029B000049ADA6C42F04002DA64DB6C03F0400304
:1029C00005933422214611A8059BFEF7EBFA11A8C6
:1029D00001F0D0FC179B03F4E063B3F5806F16D0D1
:1029E00001F01AFB98B901F035FB014678B93022A5
:1029F0001FA8FEF7D7FA4FF480631EA824931E96F3
:102A0000239501F06FFB01F037FB01F017FB4BB092
:102A1000F0BD00BF0010024072B6BFF34F8FBFF38E
:102A20006F8F704762B67047024B4FF000629A603A
:102A3000704700BF00ED00E008B500220B490C48CC
:102A400000F078FD00B1FEE70A49094800F087FD73
:102A500000B1FEE70849064800F0C1FF00B1FEE7FB
:102A6000034800F083FD00B1FEE708BD48040020E4
:102A7000342B00209C0400203804002000207047E4
:102A800070B50C4E0C4B0D4D0D49002422463046BE
:102A9000C3F80048C3F80448C5E9884400F0A6FF1D
:102AA000D5F82012304605EB811100F0A5FF204635
:102AB00070BD00BF342B0020A4220020A01F0020E6
:102AC0006422002021280AD10023C2220B704A7000
:102AD000CB7001220B714B7108238A708B7100201F
:102AE0007047000010B5144CD4F82022D4F824020A
:102AF000531C03F0070383420ED10520FEF7BAFCF6
:102B0000D4F820120D4804EB811100F075FF0B483A
:102B100000F08CFF012010BD8032096844F82210BB
:102B20000648C4F8203204EB831100F065FF034827
:102B300000F07CFF0020EEE7A01F0020342B0020D7
:102B4000F8B50E460746FFF767FF114AD2F800387E
:102B5000D2F804189C19C4F30A048C4214D106203C
:102B6000BDE8F840FEF786BC395DD1540133C3F3AC
:102B70000A0301340125A642F6D80DB1C2F8003887
:102B8000BDE8F840FFF74EBF00252C46F3E700BF35
:102B9000A4220020F8B5314BD3F8B832586D68B98B
:102BA0002F49304DD1F80438D1F800680446B342BB
:102BB00082B20ED10CB1C1F80438C2B92A4CFFF769
:102BC0002BFFD4E988329A4243D1BDE8F840FFF7A1
:102BD00029BF0130CA5C05F8012B01334028C3F33B
:102BE0000A034FF00104E2D1C1F8043802461D493E
:102BF0001A4800F0FBFE194800F003FFDEE704EB83
:102C0000831329789A5D0D2A1AD13846FFF766FD9D
:102C100040B2012803D102211448FFF791FF00239D
:102C20002B700136D4F8243203F1800254F82220AC
:102C3000B242E4D8013303F00703C4F82432C4E7F6
:102C40009A2984BF00232B702B78591C2970FA54C1
:102C5000E7E70026064D074FE4E700BF342B0020CE
:102C6000A422002064220020A01F0020166000087B
:102C700063220020C821002007B50E4B02689A424B
:102C800015D103F5DA3302219A6D42F400029A65F8
:102C90009B6D03F40003019300221420019B00F0BC
:102CA00047FF142003B05DF804EB00F075BF03B0DC
:102CB0005DF804FB005C004000F50C71D0F8700278
:102CC00000F06BBC00EB4113D0F87002D3F83C214C
:102CD00000F090BC00EB4113D0F87002DA6B00F00A
:102CE000C3BCD0F8700200F057BD8368022B10B54A
:102CF000044600D0FEE70121D0F8700200F036FD56
:102D0000D4F87002BDE8104000F009BD10B50446CB
:102D1000D0F8700200F02DFDA36923B1024A1369B7
:102D200043F00603136110BD00ED00E0836923B199
:102D3000044A136923F006031361D0F8700200F00F
:102D400021BD00BF00ED00E070B51E4A05461E48DB
:102D5000C5F8C00208230024C0E90023012602238D
:102D6000C0F8705283600361C0E90564C0E907449C
:102D700001F02FFC224621461823D5F8C00201F0AD
:102D8000F4FF224658238021D5F8C00201F0EDFF60
:102D90002246C0238121D5F8C00201F0E6FF224679
:102DA00031464FF48873D5F8C00201F0DEFF4FF4CE
:102DB000807322468221D5F8C00201F0D6FF20465A
:102DC00070BD00BF005C0040F82D002008B5D0F8B1
:102DD000C00201F05CFC032896BF024B0220185C85
:102DE00008BD00BF1960000810B51C46D0F8C0022D
:102DF0001346224601F074FC032896BF014B0220C3
:102E0000185C10BD1960000808B5D0F8C00201F0C8
:102E10009AFC032896BF024B0220185C08BD00BF35
:102E20001960000808B5D0F8C00201F033FF03288C
:102E300096BF024B0220185C08BD00BF1960000855
:102E400008B5D0F8C00201F05EFF032896BF024B20
:102E50000220185C08BD00BF196000080A06D0F8FF
:102E6000C03245BF01F07F0103EB411303EB411377
:102E700093F82A0058BF93F82A01704708B5D0F894
:102E8000C00201F019FC032896BF024B0220185C17
:102E900008BD00BF1960000808B5D0F8C00201F0F5
:102EA0009BFC032896BF024B0220185C08BD00BFA4
:102EB0001960000808B5D0F8C00201F06DFC0328C5
:102EC00096BF024B0220185C08BD00BF19600008C5
:102ED000D0F8C00201F079BC10B5044611B1012947
:102EE0000DD010BD836923B10B4A136923F006038B
:102EF0001361D4F87002BDE8104000F043BCD0F874
:102F0000700200F036FCA369002BEAD0024A136974
:102F100043F006031361E4E700ED00E0004870476A
:102F2000AC2A00207047000012230B800048704735
:102F30006804002004230B80004870477C040020B4
:102F40000023F0B54E1C1F46050FECB2092D94BFAF
:102F50003034373401F8134006F813700133DCB213
:102F6000A2424FEA0010EFD8F0BD00001A2310B5BE
:102F70000B80094B186808331B68C0180AD0074B30
:102F800007491C680822FFF7DBFF04220549204699
:102F9000FFF7D6FF044810BD9075FF1F9475FF1F03
:102FA00082040020920400208004002010B5044C0C
:102FB00004480A46214600F061FA204610BD00BFD1
:102FC0006C3000203660000810B5044C04480A46F6
:102FD000214600F053FA204610BD00BF6C3000209F
:102FE0004560000810B5044C04480A46214600F02C
:102FF00045FA204610BD00BF6C3000201D6000085F
:1030000010B5044C04480A46214600F037FA204621
:1030100010BD00BF6C300020286000080D488546B8
:103020000D480E490E4A002302E0D458C450043320
:10303000C4188C42F9D30B4A0B4C002301E01360F7
:103040000432A242FBD3FFF7EFFCFDF787FFFEF748
:1030500051FBFEE70080002000000020D405002086
:10306000A8600008D405002070320020FEE710B5EB
:1030700080210446FFF7D6FE20460021BDE810401F
:10308000FFF7D0BE37B50B7803F06003202B044662
:103090000D4611D0402B0FD06BBB4B78092B2AD893
:1030A000DFE813F0F600120129000B0129008E0061
:1030B00013002900DE00AA00D4F8B43229469B6828
:1030C00020469847002003B030BD0023ADF80630FD
:1030D0004B881A0A013A0E2A0DD8DFE802F01022B6
:1030E0002F0C0C4F590C0C0C0C0C0C0C0800D0F8CD
:1030F000B032DB6933B92046FFF7B9FFE2E7D0F819
:10310000B0321B68207C0DF106019847BDF80620FF
:10311000002A51D0EB88002B45D1204600F0F4F96D
:10312000D0E7027CD0F8B43232B99B6A0DF10600C8
:10313000984702234370E9E7DB6AF7E7DBB2052B28
:10314000D9D8DFE803F003070B0F1317D0F8B0321C
:103150005B68CFE7D0F8B0329B68CBE7D0F8B032ED
:10316000DB68C7E7D0F8B0321B69C3E7D0F8B032EC
:103170005B69BFE7D0F8B0329B69BBE7037C002BEB
:10318000B9D1D0F8B4320DF106005B6B9847BDE7BA
:10319000037C002BAFD1D0F8B4320DF106001B6BCD
:1031A00098470723C6E79A4228BF1A460146204699
:1031B000ADF8062000F07EF9EB88002B82D1ACE759
:1031C0008B88002B97D1CB88002B94D14D887F2DF5
:1031D00091D890F89C32032B8DD0E9B280F89E12E2
:1031E000FFF74CFE204600F08FF91DB1022384F852
:1031F0009C3267E70123FAE78978394D0129297064
:103200003FF679AF90F89C32022B08D0032B15D0F3
:10321000FFF72DFF2978204600F0B8F952E7002982
:103220003FF47BAF01210323416080F89C322046AC
:1032300000F0A1F902287FF470AF5CE731B90223F6
:1032400080F89C32416000F0A1F966E741680129ED
:103250003FF463AFC9B200F099F929786160E6E7FD
:10326000CA88012A7FF447AF90F89C32002B3FF4C4
:1032700042AF022B04D9032B7FF43DAF011D03E0C5
:103280000146002341F8083F204600F013F919E7F2
:1032900090F89C32013B022B3FF62DAFCB88022BDE
:1032A0007FF429AF0123C360D0F8A4320BB103230C
:1032B000C360022204F10C01E6E74B88012B7FF486
:1032C00001AFC4F8A43228E790F89C32013B022BEE
:1032D0003FF611AF4B88012B7FF4F4AE0023F0E7EB
:1032E0000C2B002038B50B7803F06003202B04462C
:1032F0000D4602D0402B00D0ABB994F89C32013B74
:10330000022B10D82B79012B0DD8D4F8B4322946D2
:103310009B6820469847EB881BB910B9204600F0FF
:10332000F3F8002038BD2046FFF7A1FEF9E738B5D5
:103330000A7802F06002202A04460B4615D0402A83
:1033400013D072B95A788D88012AE9B221D0002AA7
:1033500036D0032A05D190F89C22022A27D0032ACE
:103360000BD02046FFF783FE05E0D4F8B4221946BF
:10337000926820469047002038BD5A882AB94A06EC
:1033800003D0DB880BB9FFF74DFD204600F0BCF8F9
:10339000F1E790F89C22022A09D0032AE1D15B8848
:1033A000002BE8D14D06F0D0FFF74AFDEDE74B06C4
:1033B000D7D0FFF737FD80212046FFF733FDDAE74E
:1033C00090F89C32022B18D0032BCAD101F00F02C7
:1033D000142315F0800F03FB02021DD09269002A0E
:1033E000BFD001F07F0505FB0335054411F07F03D5
:1033F0001DD12B60022229460AE04A06B1D12B06D4
:103400004CBF00F1140100F5AA7100230B600222E9
:10341000204600F04FF8AEE7D2F85821002AA0D09D
:1034200001F07F0503FB050505F5AA75DEE72046DB
:10343000FFF714FD08B10123DBE72860DAE70B781A
:1034400003704B784370CA788B7803EB0223438078
:103450004A790B7903EB02238380CA798B7903EBDA
:103460000223C380704710B580210446FFF7DAFCC1
:1034700020460021BDE81040FFF7D4BC30B578B13C
:10348000002301385D1C445D5CB9DBB201335B0095
:1034900013800B7003234B70022310F8015F15B9E2
:1034A00030BD2B46EEE75A1CD2B2CD540233DBB20C
:1034B0008C54F2E710B513460222C0F89422C0E9FA
:1034C00007330A460021FFF7E7FC002010BD08B5CE
:1034D00013460A460021FFF7DFFC002008BD10B5A7
:1034E00013460322C0F89422C0E957330A4600214C
:1034F000FFF7E0FC002010BD08B513460A46002186
:10350000FFF7D8FC002008BD08B50423C0F89432AA
:1035100000231A461946FFF7BFFC002008BD08B576
:103520000523C0F8943200231A461946FFF7C2FC5F
:10353000002008BD08B580B1D0F8B43213B1002323
:10354000C0F8B43209B1C0F8B012012380F89C323F
:103550000270FFF7F9FB002008BD0220FCE719B15B
:10356000C0F8B412002070470220704708B5FFF77A
:103570002DFC002008BD08B5D0F8B4320BB90220EC
:1035800008BD1B6898470028FAD0F8E708B5D0F8BE
:10359000B4325B689847002008BD38B5044600F592
:1035A0002A752846FFF74BFF012394F8A812C4F8A8
:1035B0009432B4F8AE32C4F8983201F01F03012BF4
:1035C0000ED03BB1022B10D001F080012046FFF756
:1035D00029FC03E029462046FFF754FD002038BDB2
:1035E00029462046FFF77EFEF8E729462046FFF7EA
:1035F0009EFEF3E770B5044616460D4639BBD0F87B
:103600009432032B1CD1D0E9583293420BD99B1A28
:103610009A42C0F860318CBF9AB292B23146FFF73D
:103620006BFF284670BDD0F8B4321B6923B190F807
:103630009C22032A00D198472046FFF765FFF0E758
:10364000052BEED1C4F89412FFF7ECFBE9E7D0F8B4
:10365000B4329B6933B190F89C22032A02D1984777
:103660000025DEE70225DCE770B5044616460D4668
:10367000002947D1D0F89432022B3CD1D0E908324E
:10368000934214D99A1A0262314692B2FFF71FFF91
:103690002B462A4629462046FFF70CFC94F8A03218
:1036A000012B02D1002384F8A032284670BDC369E3
:1036B000B3FBF2F602FB16365EB99A4209D8D0F88F
:1036C0009822934205D20A46FFF701FFC4F89852A8
:1036D000DEE7D4F8B432DB682BB194F89C22032ADD
:1036E00001D12046984780212046FFF79BFB2046CA
:1036F000FFF715FFD2E733F00403CFD18021FFF7A6
:1037000091FBCBE7D0F8B4325B6933B190F89C22DF
:10371000032A02D198470025C7E70225C5E770B5FF
:10372000002204461146012540264023FFF75CFB9A
:1037300033468021C4F85851C4F864610022204601
:10374000FFF752FBD4F8B832A5610021666284F815
:103750009C52C4F894126160C4F8A41223B1D4F846
:10376000B43220465B689847002070BD0174002089
:10377000704790F89C3280F89D32042380F89C3288
:103780000020704790F89C32042B04BF90F89D32C3
:1037900080F89C320020704708B590F89C22032ADC
:1037A00004D1D0F8B432DB6903B19847002008BDDA
:1037B000D0F8BC3210B56BB1D0F8B84294F84000E4
:1037C000FF2807D09B6894F8412021469847FF23A3
:1037D00084F84030002010BD432303800048704728
:1037E000D4040020432303800048704718050020BC
:1037F0004323038000487047680500200A230380A4
:10380000004870475C05002038B50546D0F8B8423E
:10381000FFF75EFBD5F8B832E06443B1D5F8BC32AF
:10382000606CDB6804F14C019847002038BD022031
:10383000FCE7F8B5D0F8B862C6B1142303FB010366
:10384000DA6982B1D0F8C04204EB4114A56BB2FB37
:10385000F5F405FB142434B9DC6122462346FFF756
:103860001BFB2046F8BD00207065FBE70220F9E74E
:103870002DE9F7430A78D0F8B8724FF0000812F03B
:10388000600405460E468DF80580ADF8068028D008
:10389000202C42D1CC884B78E4B1120611D5D0F857
:1038A000BC223946D2F8089018462246C847F2880A
:1038B00039462846FFF7FEFD4446204603B0BDE8E2
:1038C000F08387F8403087F8414022463946FFF7B9
:1038D00006FEF1E7D0F8BC22184695682246A847B4
:1038E000EBE74B780A2B0CD00B2B12D0ABB990F82E
:1038F0009C32032B11D102220DF10601FFF7DAFDF4
:10390000DBE790F89C32032B07D101220DF1050172
:10391000F4E790F89C32032BCFD031462846FFF7CE
:10392000A2FD0224C9E738B5044600258121FFF72E
:103930006BFA0121E5622046FFF766FAC4F86C5184
:1039400082212046FFF760FAD4F8B83225644BB1E3
:10395000D4F8BC325B689847D4F8B802FFF7E2FAB3
:10396000C4F8B852002038BD2DE9F04104460125C5
:10397000402302228121FFF737FA40230222294601
:10398000E5622046FFF730FA082303228221C4F8BB
:103990006C512046FFF728FA25645C20FFF7BEFA39
:1039A0000646C4F8B802C0B1D4F8BC321B689847C8
:1039B000277C726C4FF00008C6F854804023C6F88C
:1039C00058802946204627B9FFF774FA3846BDE8E3
:1039D000F081FFF76FFA4746F8E72F46F6E719B18F
:1039E000C0F8BC120020704702207047D0F8B832EF
:1039F000002099641A657047D0F8B83200205964E5
:103A00007047D0F8B82210B562B1546D01235CB98B
:103A10005365136D0363926C9BB28121FFF73CFAEF
:103A2000204610BD0220FCE71846FAE7D0F8B8227D
:103A300008B532B14023526C0121FFF73BFA002058
:103A400008BD0220FCE7704738B50F4B05461868E3
:103A500008B9012038BD0D4A4FF47A73B3FBF0F377
:103A60001068B0FBF3F000F0A5F804460028F0D190
:103A70000F2DEED8024629464FF0FF3000F058F8DF
:103A8000034B20461D60E5E7AC0500203404002010
:103A9000B0050020094A136823F4806310B50320A1
:103AA000136000F033F80020FFF7CEFF044618B98A
:103AB000FFF7C9FF204610BD0124FBE700200240AC
:103AC000034A0449136809680B441360704700BF38
:103AD0006C320020AC050020014B1868704700BF15
:103AE0006C32002038B50446FFF7F6FF631C1CBF9C
:103AF000054B1B68054618BFE418FFF7EDFF401B98
:103B0000A042FAD338BD00BFAC050020074AD368F5
:103B100023F4E06300021B0400F4E0601B0C184374
:103B200040F0BF6040F40030D060704700ED00E02E
:103B3000174B70B5DC68C4F30224C4F10705042DEB
:103B400004F1040328BF04254FF0FF36062B06FAC4
:103B500005F58CBF033C002421EA0501A14006FACB
:103B600004F422EA0403002843EA0103A8BF00F199
:103B700060404FEA0313BCBF00F00F00054ADBB200
:103B8000AABF00F56140135480F8003370BD00BF38
:103B900000ED00E014ED00E0002808DB42090123FD
:103BA00000F01F0003FA00F0014B43F822007047B9
:103BB00000E100E00138B0F1807F0AD2064B074AED
:103BC0005860F02182F823100020072298601A60C4
:103BD00070470120704700BF10E000E000ED00E0FA
:103BE000704708B5FFF7FCFF08BD704738B50446BD
:103BF000002800F0BC8090F85C3003F0FF021BB995
:103C000080F85D20FFF7F1FF2268936923F010032D
:103C10009361FFF761FF054623689A69110700F178
:103C200099809A6942F001029A61FFF755FF0546B3
:103C300023689A69D20740F19C809A6942F0020297
:103C40009A61584A934204BF6168C2F80011227C0D
:103C5000012A9A690CBF22F0400242F040029A61A8
:103C6000627C012A9A690CBF42F4804222F48042AD
:103C70009A61A27C012A9A690CBF22F4805242F414
:103C800080529A619A69A06822F4407202439A6154
:103C90009A6922F0A4029A611A6922F010021A614C
:103CA000E268012A6CD19A6942F004029A61A26921
:103CB000511EE269013A120242EA4162216A013967
:103CC0000A436169013942EA0142B0F5407FDA6195
:103CD0000ED1E26A511E226B013A120142EA012220
:103CE000A16A01390A43616A013942EA0142DA6094
:103CF000D3F8C020E16B606B0A43C3F8C020D3F84F
:103D00008010294A226421F4F81141EA0041C3F8E5
:103D1000801026496164D3F88010A06B21F0706197
:103D200041EA0061C3F88010214BA364D833E364F7
:103D3000D83323651F49183363651346002243F8BF
:103D4000042B8B42FBD101232266A26584F85C30F0
:103D5000002038BDFFF7C0FE401B0A287FF65CAF8D
:103D6000236E43F001032366032384F85C300120B3
:103D7000EFE7FFF7B1FE401B0A287FF659AFEFE7E8
:103D8000002A94D0022A09D0996941F080019961F2
:103D90001969032A41F01001196188D19A6942F02A
:103DA000200283E70064004000A4004070A40040AB
:103DB000B0A4004050A7004090F85C30012B0BD11C
:103DC0000268022380F85C30936923F00103936159
:103DD0000023036618467047036E43F0040303662E
:103DE0000120704790F85C30022B29D1026893695A
:103DF00043F0010393610C239169C90712D59369BC
:103E000023F0100393610C21936913F0080314D17C
:103E1000916941F0020191610122836580F85C2083
:103E200018467047013BE7D1036E43F00103036678
:103E3000032380F85C30012070470139E4D1F3E7B7
:103E4000036E43F008030366F5E7000090F85C306A
:103E5000022B2DE9F04391465BD10668D6F8C440A9
:103E600014F4001405D0036E43F4007303660120BC
:103E700034E0D1E90072D6F8C450D1F810C08B6894
:103E8000C5F3014562BB43EA0C0C4CEA8747D1E914
:103E9000062313434A69D0F854801343CA684FF08D
:103EA000480C13430CFB05FC0A6A4CF808700CEB39
:103EB000080E43EA0263194FCEF804304A460EF169
:103EC000080ECB89FB5C9C4202F104020ED3012355
:103ED00003FA05F5C6F8CC5085650020BDE8F083EF
:103EE00047EA0C071F4347F08047D0E712F8023C2F
:103EF00012F801CC1B0443EA0C6312F804CC43EA29
:103F00000C0312F803CC43EA0C234EF804300434BB
:103F1000D7E7036E43F00803A8E700BF83600008FB
:103F2000F0B590F85C40022C5FD1402904684AD17A
:103F3000D4F890502E0705D1036E43F480730366C6
:103F400001203FE0D4F89050846CC5F30125482649
:103F500006FB0544276807F0804757602668002F56
:103F60003BD1C6F38A4616602668DFF888C006F0A3
:103F700000569660266806F000461661A688D6614F
:103F8000666806F47026D660666806F48016566188
:103F9000666806F400169661E67906F07F061662FA
:103FA0006668F60F566207340026D7891CF807703A
:103FB000B74215D8036840290CBFC3F89450C3F822
:103FC0009C500020F0BDD4F898502D07B4D0D4F800
:103FD0009850C46CC5F30125B9E726F06046C2E7E6
:103FE00014F8017F9F550136DFE7036E43F00803A5
:103FF000A5E700BF83600008036840290CBFD3F821
:104000009000D3F8980000F00F0070470368D3F8D1
:10401000C40000F007007047064B5A69002ABFBF72
:10402000054A9A6002F188329A60BABF5869C00F97
:10403000002070470020024023016745044B5A6965
:1040400042F000425A615869C043C00F704700BF38
:1040500000200240064B586910F0804007D0054A06
:10406000DA6002F14432DA605869C0F38070704758
:10407000002002403B2A1908054B5A6942F0804251
:104080005A61586980F08040C0F38070704700BF6B
:104090000020024070B50646FFF71EFD0F4C054696
:1040A0002369DB030BD420694CF2FA3202400DD0B5
:1040B0000B494B6813434B600120226170BDFFF731
:1040C0000BFD401BB042EBD90320F7E7206910F04D
:1040D0000100F3D0012323611046EFE700200240E6
:1040E000B40500202DE9F843A04B1A78012A0446B4
:1040F000984600F0398101271F700023C8F804306A
:1041000003683B4000F02E81D0E90195C6684FF46A
:104110007A70FFF7BFFF90B9954BB9F1000F40F0EF
:104120001A8145EA0645DD625A6942F400325A6155
:104130004FF47A70FFF7AEFF071C18BF0127236802
:104140009D0715D54FF47A702569FFF7A3FF70B965
:10415000874A136A23F0FF032B431362536943F426
:10416000003353614FF47A70FFF794FF00B10127D9
:104170002368580740F182804FF47A70D4E90565CE
:10418000FFF788FF002878D116F001030EBF1A460A
:1041900005F4E0634FF4E062B10742BF05F48051DB
:1041A0000B4342F48052700742BF05F400510B43A9
:1041B00042F40052F10442BF05F480410B4342F443
:1041C0008042300742BF05F480310B4342F4803215
:1041D000F10642BF05F400310B4342F40032B00651
:1041E00042BF05F480210B4342F48022710642BF96
:1041F00005F400210B4342F40022B00542BF05F450
:1042000000010B4342F40002710542BF05F08071CA
:104210000B4342F08072300542BF05F000710B4342
:1042200042F00072B10442BF05F080610B4342F0DE
:104230008062700442BF05F000610B4342F00062EF
:104240004B48310442BF05F040510B4342F040520D
:10425000016AF60342BF05F0804542F080422B43DD
:1042600021EA020213430362436943F400334361CA
:104270004FF47A70FFF70EFF00B10127236818078B
:104280002ED5D4E90896B1452AD04FF47A70E56965
:10429000FFF700FF18BBE90710D5354B596AA0F5A9
:1042A000804009F17849014041EAD90159629A6A8E
:1042B00006F17846024042EAD6029A622C4A936A94
:1042C00005F0004523F000432B439362536943F408
:1042D000003353614FF47A70FFF7DCFE00B1012721
:1042E00023689A0618D54FF47A70D4E90B65FFF766
:1042F000D1FE80B91E4A012E01BF136F23F07F0348
:104300002B431367536943F4003353614FF47A70BE
:10431000FFF7C0FE00B101272368DB0615D54FF477
:104320007A70A46AFFF7B6FE70B9114A136F23F4CE
:10433000803323431367536943F4003353614FF4CD
:104340007A70FFF7A7FE00B10127002388F800303C
:104350003846BDE8F883B9F1010F04BF45EA0645C8
:104360001D63E1E61F46EAE60227F1E7B4050020F7
:104370000020024042680623012A03600CD807236C
:104380000360264B002A42D1DA6A02F03F028260C3
:10439000DB6AC3F30543C360204B1A6AD2B2AA2A70
:1043A00002D0CC2A18BFBB2202611A6A22F0FF0297
:1043B0008261C269012A16D1026842F008020260D5
:1043C000596A174A02EAC10101F100610162996A62
:1043D00002EAC10202F1006242629B6A03F00043FA
:1043E00043F00103C36103680C4943F0100202600B
:1043F0000A6F02F480328262C26A012A06D143F057
:10440000300303600B6F03F07F03036370471A6B85
:1044100002F03F0282601B6BBBE700BF002002403E
:10442000F8FF01002DE9F04F644AD1F80080DFF871
:10443000949185B0002338FA03F402D105B0BDE8A9
:10444000F08F01249C4014EA0806019400F0AA8031
:104450004C6824F0100ABAF1020F16D14FEAD30EBD
:1044600000EB8E0E03F0070BDEF820504FEA8B0BAB
:104470004FF00F0C0CFA0BFC25EA0C0C0D6905FA39
:104480000BF545EA0C05CEF820504FEA430E032504
:10449000D0F800B005FA0EF5ED4304F0030C05EA80
:1044A0000B0B0CFA0EFC0AF1FF3A4CEA0B0CBAF1BA
:1044B000010FC0F800C016D8D0F808C0CF6805EAD0
:1044C0000C0C07FA0EFA4AEA0C0CC0F808C0D0F837
:1044D00004C0019F2CEA0707C4F3001C0CFA03FC7C
:1044E0004CEA07074760C7683D408F6807FA0EF738
:1044F0003D43C560E50055D5D9F8605045F001054C
:10450000C9F86050D9F8605023F0030707F18047DD
:1045100005F0010507F58037039503F0030E039DB1
:10452000BD684FEA8E0E4FF00F0C0CFA0EFCB0F186
:10453000904F25EA0C0C37D0214DA84236D005F516
:104540008065A84234D005F58065A84232D005F5D3
:104550008065A84230D005F58065A8420CBF0525CE
:10456000062505FA0EF545EA0C05BD601568F7430A
:1045700014F4803F0CBF3D4035431560556814F47A
:10458000003F0CBF3D4035435560956814F4801FD3
:104590000CBF3D4035439560D568A40254BF3D40F3
:1045A0003543D560013346E70025DAE70125D8E732
:1045B0000225D6E70325D4E70425D2E7000401400D
:1045C00000040048001002400AB181617047816216
:1045D000704770B5044686B0002855D090F829324F
:1045E00003F0FF021BB980F82822FEF745FB0323E6
:1045F00084F82932206801F0D9F800226068012689
:104600001546D3B2984202F1010220D80022114689
:10461000D3B2984202F1010228D804F110060FCE5D
:104620006D460FC533682B60231D0ECB206801F04B
:10463000C7F80025012384F8245084F82932E3695F
:10464000012B02D1204600F0A7FB28461DE004EB19
:104650004311C1E90E5581F82830CB8602335B0146
:1046600081F8296081F82B50E550CAE704EB431527
:10467000C5E94E1185F828310A335B0185F8291107
:1046800085F82B11E150C3E7012006B070BD90F80A
:104690002832012B10B504460CD0012380F82832B3
:1046A000006801F034FB206801F076F8002084F8FF
:1046B000280210BD0220FCE790F82822012A10B53C
:1046C00004460BD0012280F8282284F824100068C8
:1046D00001F017FB002084F8280210BD0220FCE73F
:1046E00070B501F00706044611F0800F4FEA46103E
:1046F00005461ED0254400F128010120214485F8FB
:1047000029000A614A780E70CB7002B1CE81022B6B
:1047100004BF00230B7194F82832012B11D0012320
:1047200084F82832206801F067F8002084F8280215
:1047300070BD254400F594710020214485F82901BD
:10474000DFE70220F4E710B5044601F0070043015B
:1047500011F0800F1A4615D0224403F128010123DD
:10476000214482F82930087094F82832012B11D0A6
:10477000012384F82832206801F09EF9002084F893
:10478000280210BD224403F594710023214482F8CD
:104790002931E8E70220F4E770B501F0070100EBEA
:1047A00041164C01002586F8281104F59471014446
:1047B000C6F83C21C6F84031C6F8445186F8295164
:1047C000006801F0C1FA284670BD01F0070100EB56
:1047D0004111D1F84401704770B501F0070100EBB9
:1047E00041154C012B640026012385F8281004F1A3
:1047F00028010144EA636E6485F82930006801F0FD
:10480000A3FA304670BD00002DE9F84F0446006859
:1048100001F085FA010409D5DFF870A4DFF870B45F
:104820002068B0F844301A0400F1CB80206801F011
:1048300076FA42050FD52268B2F8443023F480633B
:104840001B041B0C2046A2F84430FEF74EFA002150
:104850002046FFF731FF206801F061FA430408D5D4
:104860002268B2F8443023F480431B041B0CA2F8E6
:104870004430206801F053FA870408D52268B2F862
:10488000443023F400531B041B0CA2F8443020686E
:1048900001F045FAC60426D52268B2F8403023F06C
:1048A00004031B041B0CA2F84030B2F8403023F084
:1048B00008031B041B0CA2F8403094F86032012B53
:1048C00005D1002184F860122046FEF705FB204642
:1048D000FEF72CFA2268B2F8443023F480531B040C
:1048E0001B0CA2F84430206801F019FA05051BD50D
:1048F0002068B0F8403043F00803A0F84030B0F82A
:10490000443023F400631B041B0CA0F84430B0F8BF
:10491000403043F00403A0F8403001F000FAC00436
:1049200002D42046FEF7F2F9206801F0F8F90106FA
:1049300026D52368B3F8442022F080021204120C1A
:10494000A3F8442094F86022002A40F09B81B3F839
:10495000402042F00402A3F84020B3F8402042F087
:104960000802A3F84020B3F854309B08012103F05B
:104970003C0384F86012C4F864322046FEF7ACFAB7
:10498000206801F0CCF982050BD52268B2F84430DA
:1049900023F400731B041B0CA2F844302046FEF7DE
:1049A000A0F9206801F0BBF9C30508D52268B2F868
:1049B000443023F480731B041B0CA2F84430BDE880
:1049C000F88FB0F8441089B211F00F0740F0AE80B4
:1049D00011F01001038829D10AEA030343F40043CC
:1049E0000380B0F8502094F8283000F202401044C0
:1049F000E26B30F83330C3F3090363641344E363B9
:104A00002046FEF767F994F82430002B3FF408AFF6
:104A1000226C002A7FF404AF94F82430216843F01C
:104A20008003A1F84C3084F82420F9E69BB213F4FB
:104A300000651FD0B0F8501094F8282100F206430A
:104A40000B4404F50C7133F83230B4F82E21C3F363
:104A50000903C4F8443101F04DFA2268138823F0A9
:104A600070031B051B0D43F0800313802046FEF7E7
:104A700023F9D5E61B047FF5D3AE038823F070033A
:104A80001B051B0D43F080030380B0F8501094F811
:104A9000282100F206430B4433F83230C3F30903F4
:104AA000C4F844318BB1D4F83C1171B1B4F82E2163
:104AB00001F020FAD4F83C31D4F844211344C4F86E
:104AC0003C3129462046FEF7FDF82168D4F83851DC
:104AD000B1F8503001F206409BB2BDB9C25A22F47F
:104AE000F8421204120CC252C25A4BEA020292B2AB
:104AF000C2520B8823F4804323F0700383F44053A5
:104B000043F4004343F080030B8089E63E2D05D833
:104B10006A08EF0748BF01329202E8E76A09EE0629
:104B200008BF02F1FF324BEA8222E0E73EB230F8E2
:104B300026901FFA89F919F4004F3FD030F826303B
:104B400023F070031B051B0D43F080034FEA471849
:104B500020F8263004EB080191F83431002B55D1B0
:104B6000B0F8505091F8282100F206432B4433F856
:104B70003250C5F3090535B1B1F82E21D1F83C11F9
:104B80002B4601F0B7F904EB461304EB0801D3F808
:104B900044212A44C3F84421D1F83C212A44C1F8D5
:104BA0003C21D3F840311BB1D1F83801854260D2A5
:104BB000A044204698F82811FEF784F819F0800FD9
:104BC0003FF42EAE236833F826200AEA020242F4AC
:104BD000004223F8262004EB4717B3F8501097F84B
:104BE000282003F202430B4404EB461633F832202C
:104BF000C2F309027264FB6B97F828101A44FA6337
:104C0000336C2046DBBBFEF765F809E691F82831E6
:104C100030F82350DA00B0F850306D0403441344E8
:104C20001DD5B3F80254C5F3090535B1B1F83021EB
:104C30002B46D1F83C1101F05DF904EB0803226822
:104C400093F8281132F8213023F4E04323F0700365
:104C500043F4004343F0C00322F8213093E7B3F854
:104C60000654C5F30905002DE7D02B46B1F83221D3
:104C7000DFE791F828112046FFF78EFD9EE7FFF74A
:104C8000ABFDCDE52046FEF741F879E60F8FFFFF3B
:104C90000080FFFF38B5436801F007059D420446D8
:104CA0002DD811F0800F4FF020031ED000EB4512DD
:104CB00003FB05030121283382F8291001229A7091
:104CC0001D7094F8281291421BD084F828221946AE
:104CD000206800F0B7FF25B904F50C71206801F0D9
:104CE00021F8002084F8280238BD03FB010300EB03
:104CF0004111002203F5947381F82921DEE7012098
:104D0000F2E70220F0E738B5436801F00F029A425B
:104D1000044626D801F00700430111F0800F1A461F
:104D200017D0224403F128010123214482F82930BD
:104D300000258D70087094F82832012B13D00123C0
:104D400084F82832206800F099FF84F82852284619
:104D500038BD224403F594710023214482F829319F
:104D6000E6E70120F4E70220F2E711F0800F1BBF15
:104D700001F0070100EB411000EB4110283008BFA3
:104D800000F5947099B21AB90273C180002070477F
:104D9000012202738360F9E7036802460121C0F82B
:104DA0006812002082F86002B3F854200A43A3F886
:104DB0005420B3F8542042F00202A3F85420704764
:104DC0002A4B1A6838BB02F4C062B2F5806FD3F880
:104DD000802022F48072C3F880201BD11A6822F44C
:104DE000C06242F400721A60214A116832224A43BA
:104DF0002049B2FBF1F2194601325869400500D54D
:104E000022B94B695B0503D400207047013AF4E7EF
:104E1000032070477047B0F5007F20D102F4C062D4
:104E2000B2F5806FD3F8802042F48072C3F88020FE
:104E3000EAD11A6822F4C06242F400721A600C4A85
:104E4000116832224A430B49B2FBF1F21946013292
:104E500058694005D5D5002AD3D0013AF8E722F4A5
:104E6000C06242F480621A60CEE700BF007000406A
:104E70003404002040420F002DE9F341044608B9F4
:104E800001203FE00368DF0714D423689E075AD44B
:104E900023681E0700F1A38023685D0700F1CA8024
:104EA00023689B0600F13381E069002840F06081AF
:104EB000002027E0AB4DAB68EA6803F00C030C2B35
:104EC0000AD102F00303032B08D12B689D03DCD524
:104ED0006368002BD9D1D3E7082BF5E76368B3F5F6
:104EE000803F12D12B6843F480332B60FEF7F4FD32
:104EF00006462B689803C8D4FEF7EEFD801B642895
:104F0000F7D9032002B0BDE8F081B3F5A02F04D19A
:104F10002B6843F480232B60E4E72A6822F4803274
:104F20002A602A6822F480222A60002BDED1FEF754
:104F3000D3FD06462B689903A7D5FEF7CDFD801B50
:104F40006428F7D9DDE7874DAB68EA6803F00C0306
:104F50000C2B17D102F00303022B15D12B685A0535
:104F600002D5E368002B8BD06B68226923F0FE43E7
:104F700043EA02636B607C4B1868FEF765FD00280E
:104F800086D07DE7042BE8E7E368BBB12B6843F4E8
:104F900080732B60FEF7A0FD06462B685B0507D5E6
:104FA0006B68226923F0FE4343EA02636B606FE79C
:104FB000FEF792FD801B0228EFD9A2E72B6823F4AD
:104FC00080732B60FEF788FD06462B685F057FF532
:104FD0005FAFFEF781FD801B0228F6D991E7636978
:104FE000604D9BB1D5F8943043F00103C5F894307F
:104FF000FEF772FD0646D5F8943098073FF54CAFA2
:10500000FEF76AFD801B0228F5D97AE7D5F89430BF
:1050100023F00103C5F89430FEF75EFD0646D5F88F
:10502000943099077FF538AFFEF756FD801B0228B4
:10503000F5D966E74B4DAB6DDA001CD4AB6D43F090
:105040008053AB65AB6D03F080530193019B012747
:10505000464E3368DB0510D5A368012B1ED1D5F869
:10506000903043F00103C5F89030FEF735FD41F272
:10507000883680463FE00027EAE7336843F48073D0
:105080003360FEF729FD80463368D805E4D4FEF787
:1050900023FDA0EB08000228F6D932E7052B06D144
:1050A000D5F8903043F00403C5F89030D7E7D5F831
:1050B000902022F00102C5F89020D5F8902022F02F
:1050C0000402C5F89020002BCFD1FEF705FD41F278
:1050D00088380646D5F890309A0710D5FEF7FCFCC4
:1050E000801B4045F6D90CE7FEF7F6FCA0EB080064
:1050F000B0423FF606AFD5F890309907F4D5002FAF
:105100003FF4CEAEAB6D23F08053AB65C8E6A36928
:10511000144D9BB1D5F8983043F00103C5F8983091
:10512000FEF7DAFC0646D5F898309F073FF5BCAE8F
:10513000FEF7D2FC801B0228F5D9E2E6D5F89830BC
:1051400023F00103C5F89830FEF7C6FC0646D5F8F3
:10515000983098077FF5A8AEFEF7BEFC801B0228AA
:10516000F5D9CEE600100240B005002000700040E6
:10517000494B9A6802F00C020C2A1D4657D01B6856
:10518000022823F080732B603AD1FEF7A5FC064677
:105190002B6899012ED4EA68404B1340226A1343CE
:1051A000A26A43EA0223E26A43EAC263626A013AFC
:1051B00043EA0213226B5208013A43EA4253626BFC
:1051C0005208013A43EA4263EB602B6843F0807374
:1051D0002B60EB6843F08073EB60FEF77DFC0446C8
:1051E0002B689A013FF564AEFEF776FC001B02289F
:1051F000F6D986E6FEF770FC801B0228C8D980E647
:10520000EB6823F00303EB60EB6823F0887323F46F
:105210008033EB60FEF760FC04462B689B017FF552
:1052200047AEFEF759FC001B0228F6D969E60128B3
:105230003FF468AEDB68226A03F0030191427FF419
:105240001FAE616A03F0F0020139B2EB011F7FF477
:1052500017AEA16A03F4FE42B2EB012F7FF410AE49
:10526000E16A03F07842B2EBC16F7FF409AE226BC2
:10527000520803F4C001013AB1EB425F7FF400AE83
:10528000626B5208013A03F0C063B3EB426F14BF84
:105290000120002036E600BF001002400C809F0174
:1052A000134A936803F00C03042B1DD0936803F09A
:1052B0000C03082B18D0936803F00C030C2B15D1AA
:1052C000D368D0680B4BD168C0F303100130B3FB37
:1052D000F0F0D368C3F34163C1F3062101334843BF
:1052E0005B00B0FBF3F07047024870470020704746
:1052F000001002400024F4002DE9F8430E46054654
:1053000010B90120BDE8F8836A4A136803F00F035F
:105310008B4245D3296811F001074CD12A689107C7
:1053200040F1A280644B12F0040F1EBF996841F453
:10533000E0619960120741BF9A6822F47C5242F4FE
:10534000E0629A609A68A96822F0F0020A439A60C3
:10535000584C236803F00F03B34200F28D802A6893
:10536000554C12F0040F40F09D80130706D5A3683A
:105370002A6923F4605343EAC203A360FFF790FF56
:10538000A3684E4AC3F30313D35C03F01F03D84052
:105390004B4B18604B4B1868BDE8F843FEF754BB05
:1053A000136823F00F030B431360136803F00F031C
:1053B0008B42A6D1AEE76B683F4C032B44D12368E8
:1053C0009F019ED5E268E3683F4AE068C3F3031398
:1053D0000133B2FBF3F3E268C2F34162C0F306208B
:1053E000013252004343B3FBF2F3384A93421AD8D6
:1053F0000027A3686A6823F003031343A360FEF742
:105400006BFB41F288398046A3686A6803F00C039D
:10541000B3EB820F82D0FEF75FFBA0EB080048459C
:10542000F2D903206EE7A36813F0F00F04D08807C9
:10543000DED5AB68002BDBD1A36823F0F00343F08B
:105440008003A3608027D4E7022B236809D113F4DB
:10545000003F3FF456AFFFF723FF1C4B9842C7D9DC
:10546000EAE713F4806FF4E7802F01BF124A9368D4
:1054700023F0F00393606BE7236823F00F033343BB
:105480002360FEF729FB41F288380746236803F0C2
:105490000F03B3423FF463AFFEF71EFBC01B404552
:1054A000F4D9BEE7A368E96823F4E0630B43A36083
:1054B0005BE700BF002002400010024006600008C9
:1054C00034040020B00500200024F40000B4C4041B
:1054D0002DE9F3410446006810F4002039D0994DBD
:1054E000AB6DD80027D4AB6D43F08053AB65AB6D8B
:1054F00003F080530193019B0127934E336843F4DB
:1055000080733360FEF7E8FA80463368D90514D516
:10551000D5F8903013F4407303D0226C934240F0DE
:10552000EB80D5F89030226C23F440731343C5F818
:105530009030002008E00027DFE7FEF7CDFAA0EB6F
:1055400008000228E1D903201FB1AB6D23F080537E
:10555000AB652368DE0708D57A496568D1F88820ED
:1055600022F003022A43C1F888209D0708D5754917
:10557000A568D1F8882022F00C022A43C1F88820BF
:10558000590708D56F49E568D1F8882022F0300224
:105590002A43C1F888201A0708D56A492569D1F835
:1055A000882022F0C0022A43C1F888209F0608D52F
:1055B00064496569D1F8882022F440622A43C1F821
:1055C00088205E0608D55F49A569D1F8882022F4B5
:1055D00040522A43C1F888201D0608D55949E5697B
:1055E000D1F8882022F440422A43C1F88820D90506
:1055F00008D55449256AD1F8882022F440322A433C
:10560000C1F888209A0508D54E49656AD1F88820E6
:1056100022F440222A43C1F888205F050FD549496A
:10562000A56AD1F8882022F440122A43C1F88820C4
:10563000B5F5801F02BFCA6842F48012CA601E0519
:105640000FD54049E56AD1F8882022F440022A4368
:10565000C1F88820B5F5800F02BFCA6842F48012F5
:10566000CA60DD040FD53749256BD1F8882022F0B8
:1056700040722A43C1F88820B5F1807F02BFCA6812
:1056800042F48012CA6099040FD52E49656BD1F897
:10569000882022F040622A43C1F88820B5F1006FCB
:1056A00002BFCA6842F48012CA605A040FD5254965
:1056B000A56BD1F8882022F040622A43C1F88820E7
:1056C000B5F1006F02BFCA6842F48012CA601B04C1
:1056D0000FD51C4AE16BD2F8883023F040530B43BE
:1056E000B1F1805FC2F8883003D1D36843F48033CE
:1056F000D36002B0BDE8F081D5F89020D5F89030A5
:1057000043F48033C5F89030D5F8903022F44071DE
:1057100023F48033D207C5F89030C5F890107FF598
:1057200000AFFEF7D9F941F288380646D5F8903037
:105730009B073FF5F6AEFEF7CFF9801B4045F5D944
:1057400001E700BF0010024000700040104B9A6B50
:1057500042F480729A639A6B22F480729A63D0E961
:105760000032134382681343C2681343026943EA59
:105770000243084A53601368416923F4FE4343EA35
:1057800001231360136843F060031360704700BF88
:105790000010024000200040B0F8403043F43F4386
:1057A00043F08003A0F8403000207047B0F840304C
:1057B00023F47E535B045B0CA0F84030002070475C
:1057C00084B010B503AC84E80E0000220123A0F8D9
:1057D0004030BDE81040A0F84020A0F84420A0F8D8
:1057E0005020B0F8403043F43F4343F08003A0F82A
:1057F000403004B010467047F0B50C7830F82420E3
:105800000346C87822F4EC4222F0700203284DD8F7
:10581000DFE800F00249474542F4007248F2800593
:105820002A4323F824200F78A04C3EB233F82620D8
:1058300022403A432A4323F826200D7B0A78002D84
:1058400040F08280CD884F786D0808266D0016FBE9
:1058500002326FB3B3F850603244A2F800540D78AE
:1058600033F82520570608D533F82520144044F492
:10587000004444F0C00423F82540CA780C78012A7B
:1058800033F824108A4A02EA010218BF82F020028B
:1058900042F4004242F0800223F82420F0BD42F49A
:1058A000C0620020BAE742F48062FAE70120B5E75F
:1058B000B3F850402244A2F804540A78B3F8504098
:1058C00016FB02320E69A4B202F2064256BB155B09
:1058D00025F4F8452D042D0C1553155B45F40045B2
:1058E00015530C7833F8242052040BD533F82420B8
:1058F00022F4E04222F0700242F4404242F0800280
:1059000023F82420097833F8212022F4804222F061
:10591000700282F4405242F4004242F0800223F8C6
:105920002120BBE73E2E06D87508F60748BF013593
:10593000AD02ADB2D4E77709F5065E4D08BF07F1B9
:10594000FF3745EA8725F4E712B233F822502540A5
:1059500045F4014545F0800523F822500D78B3F851
:1059600050700E89082212FB053505F58065BFB21F
:1059700076087600EE530D78B3F8506012FB0532CE
:105980004D8902F20442B6B26D086D0095530A7853
:105990004D7812B2002D43D133F822506F0408D550
:1059A00033F822502C4044F4404444F0800423F85F
:1059B00022400C7833F8242056060BD533F82420E7
:1059C00022F4E04222F0700242F4004242F0C002AF
:1059D00023F824200C7833F8242022F4E04222F02B
:1059E000700242F4004242F0C00223F824200D78F5
:1059F00033F8252022F4804222F0700248F280041D
:105A000082F44052224323F82520097833F82120DC
:105A100022F4E04222F04002144323F821403DE703
:105A200033F822506D0408D533F822502C4044F44A
:105A3000404444F0800423F822400C7833F82420BA
:105A400052060BD533F8242022F4E04222F07002F3
:105A500042F4004242F0C00223F824200C7833F8CC
:105A6000242022F4E04222F0700242F4404242F04C
:105A7000800223F824200C78CA7824B2012A33F853
:105A800024500B4A02EA050218BF82F0200242F4B9
:105A9000004242F0800223F82420097833F82120C4
:105AA00022F4804222F0700235E700BF8F8FFFFFA3
:105AB000BF8FFFFF0080FFFF10B50C7B4A780B788B
:105AC000BCBBF2B130F8232052060BD530F82320AE
:105AD00022F4E04222F0700242F4004242F0C0029E
:105AE00020F823200A7830F8223023F4E04323F012
:105AF000400343F4004343F0800320F822300020A9
