:020000040800F2
:2000000000800020092C0008F1130008F3130008F5130008F7130008F913000800000000B3
:20002000000000000000000000000000FB130008FD13000800000000FF130008111400084B
:20004000592C0008592C0008592C0008592C0008592C0008592C0008592C0008592C000838
:20006000592C0008592C0008592C0008592C0008592C0008592C0008592C0008592C000818
:20008000592C000800000000592C00080D14000801140008592C0008592C0008592C000859
:2000A000592C0008592C0008592C0008592C0008592C0008592C0008592C0008592C0008D8
:2000C000592C0008592C0008592C0008592C0008592C0008592C0008592C0008592C0008B8
:2000E000592C0008592C0008592C0008592C0008592C0008592C0008592C00080000000025
:2001000000000000592C000800000000592C0008592C000800000000592C0008592C00081E
:20012000592C0008592C0008592C0008592C0008592C00080000000000000000592C000871
:20014000592C0008592C000800000000000000000000000000000000000000000000000085
:20016000000000000000000000000000592C0008592C000800000000000000000000000065
:2001800000000000592C0008000000000000000000000000000000000000000000000000D2
:2001A0000000000000000000592C0008592C0008592C0008592C0008592C0008000000007E
:2001C00000000000592C00080000000000000000592C0008592C0008000000000000000078
:2001E0000000000000000000000000000000000000000000000000000000000000000000FF
:2002000090F800F06DE9024520F007016FF0000C10F0070491F820F040F049804FF0000466
:200220006FF00700D1E9002391F840F000F1080082FA4CF2A4FA8CF283FA4CF3A2FA8CF31C
:200240004BBBD1E9022382FA4CF200F10800A4FA8CF283FA4CF3A2FA8CF3E3B9D1E9042396
:2002600082FA4CF200F10800A4FA8CF283FA4CF3A2FA8CF37BB9D1E9062301F1200182FA32
:200280004CF200F10800A4FA8CF283FA4CF3A2FA8CF3002BC6D0002A04BF04301A4612BA26
:2002A000B2FA82F2FDE8024500EBD2007047D1E9002304F00305C4F100004FEAC50514F0E9
:2002C000040F91F840F00CFA05F562EA05021CBF63EA050362464FF00004A9E781F00041A2
:2002E00002E000BF83F0004330B54FEA41044FEA430594EA050F08BF90EA020F1FBF54EAC3
:20030000000C55EA020C7FEA645C7FEA655C00F0E2804FEA5454D4EB5555B8BF6D420CDD86
:200320002C4480EA020281EA030382EA000083EA010180EA020281EA0303362D88BF30BD1D
:2003400011F0004F4FEA01314FF4801C4CEA113102D0404261EB410113F0004F4FEA0333E8
:200360004CEA133302D0524263EB430394EA050F00F0A780A4F10104D5F1200E0DDB02FAEC
:200380000EFC22FA05F2801841F1000103FA0EF2801843FA05F359410EE0A5F120050EF169
:2003A000200E012A03FA0EFC28BF4CF0020C43FA05F3C01851EBE37101F0004507D54FF0BE
:2003C000000EDCF1000C7EEB00006EEB0101B1F5801F1BD3B1F5001F0CD349085FEA3000D1
:2003E0004FEA3C0C04F101044FEA445212F5800F80F09A80BCF1004F08BF5FEA500C50F1EA
:20040000000041EB045141EA050130BD5FEA4C0C404141EB0101013C28BFB1F5801FE9D2C9
:2004200091F0000F04BF01460020B1FA81F308BF2033A3F10B03B3F120020CDA0C3208DD58
:2004400002F1140CC2F10C0201FA0CF021FA02F10CE002F11402D8BFC2F1200C01FA02F16A
:2004600020FA0CFCDCBF41EA0C019040E41AA2BF01EB0451294330BD6FEA04041F3C1CDA0C
:200480000C340EDC04F11404C4F1200220FA04F001FA02F340EA030021FA04F345EA0301DE
:2004A00030BDC4F10C04C4F1200220FA02F001FA04F340EA0300294630BD21FA04F02946AE
:2004C00030BD94F0000F83F4801306BF81F480110134013D4EE77FEA645C18BF7FEA655CF5
:2004E00029D094EA050F08BF90EA020F05D054EA000C04BF1946104630BD91EA030F1EBF31
:200500000021002030BD5FEA545C05D14000494128BF41F0004130BD14F580043CBF01F550
:20052000801130BD01F0004545F0FE4141F470014FF0000030BD7FEA645C1ABF194610460A
:200540007FEA655C1CBF0B46024650EA013406BF52EA033591EA030F41F4002130BD00BFC6
:2005600090F0000F04BF0021704730B54FF4806404F132044FF000054FF0000150E700BFA0
:2005800090F0000F04BF0021704730B54FF4806404F1320410F0004548BF40424FF00001EC
:2005A0003EE700BF42004FEAE2014FEA31014FEA02701FBF12F07F4393F07F4F81F06051CE
:2005C000704732F07F4208BF704793F07F4F04BF41F40021704730B54FF4607401F00045B0
:2005E00021F000411CE700BF50EA010208BF704730B54FF000050AE050EA010208BF70475E
:2006000030B511F0004502D5404261EB41014FF4806404F132045FEA915C3FF4D8AE4FF048
:2006200003025FEADC0C18BF03325FEADC0C18BF033202EBDC02C2F1200300FA03FC20FA87
:2006400002F001FA03FE40EA0E0021FA02F11444BDE600BF70B54FF0FF0C4CF4E06C1CEAAB
:2006600011541DBF1CEA135594EA0C0F95EA0C0F00F0DEF82C4481EA030621EA4C5123EA39
:200680004C5350EA013518BF52EA033541F4801143F4801338D0A0FB02CE4FF00005E1FBDD
:2006A00002E506F00042E0FB03E54FF00006E1FB03569CF0000F18BF4EF0010EA4F1FF0487
:2006C000B6F5007F64F5407404D25FEA4E0E6D4146EB060642EAC62141EA55514FEAC5207B
:2006E00040EA5E504FEACE2EB4F1FD0C88BFBCF5E06F1ED8BEF1004F08BF5FEA500E50F155
:20070000000041EB045170BD06F0004646EA010140EA020081EA0301B4EB5C04C2BFD4EBE3
:200720000C0541EA045170BD41F480114FF0000E013C00F3AB8014F1360FDEBF002001F095
:20074000004170BDC4F10004203C35DA0C341BDC04F11404C4F1200500FA05F320FA04F0E9
:2007600001FA05F240EA020001F0004221F0004110EBD37021FA04F642EB06015EEA430EB6
:2007800008BF20EAD37070BDC4F10C04C4F1200500FA04F320FA05F001FA04F240EA02005C
:2007A00001F0004110EBD37041F100015EEA430E08BF20EAD37070BDC4F1200500FA05F2F1
:2007C0004EEA020E20FA04F301FA05F243EA020321FA04F001F0004121FA04F220EA02003E
:2007E00000EBD3705EEA430E08BF20EAD37070BD94F0000F0FD101F00046400041EB0101D9
:2008000011F4801F08BF013CF7D041EA060195F0000F18BF704703F00046520043EB030356
:2008200013F4801F08BF013DF7D043EA0603704794EA0C0F0CEA135518BF95EA0C0F0CD015
:2008400050EA410618BF52EA4306D1D181EA030101F000414FF0000070BD50EA410606BFC6
:200860001046194652EA430619D094EA0C0F02D150EA013613D195EA0C0F05D152EA0336AF
:200880001CBF104619460AD181EA030101F0004141F0FE4141F470014FF0000070BD41F099
:2008A000FE4141F4780170BD70B54FF0FF0C4CF4E06C1CEA11541DBF1CEA135594EA0C0FD5
:2008C00095EA0C0F00F0A7F8A4EB050481EA030E52EA03354FEA013100F088804FEA033395
:2008E0004FF0805545EA131343EA12634FEA022245EA111545EA10654FEA00260EF00041F9
:200900009D4208BF964244F1FD0404F5407402D25B084FEA3202B61A65EB03055B084FEA0E
:2009200032024FF480104FF4002CB6EB020E75EB030E22BFB61A754640EA0C005B084FEAE1
:200940003202B6EB020E75EB030E22BFB61A754640EA5C005B084FEA3202B6EB020E75EB6E
:20096000030E22BFB61A754640EA9C005B084FEA3202B6EB020E75EB030E22BFB61A7546D6
:2009800040EADC0055EA060E18D04FEA051545EA16754FEA06164FEAC30343EA52734FEA8A
:2009A000C2025FEA1C1CC0D111F4801F0BD141EA00014FF000004FF0004CB6E711F4801FAA
:2009C00004BF01430020B4F1FD0C88BFBCF5E06F3FF6AFAEB5EB030C04BFB6EB020C5FEAFF
:2009E000500C50F1000041EB045170BD0EF0004E4EEA113114EB5C04C2BFD4EB0C0541EA0B
:200A0000045170BD41F480114FF0000E013C90E645EA060E8DE60CEA135594EA0C0F08BF1A
:200A200095EA0C0F3FF43BAF94EA0C0F0AD150EA01347FF434AF95EA0C0F7FF425AF10468F
:200A400019462CE795EA0C0F06D152EA03353FF4FDAE1046194622E750EA410618BF52EA0F
:200A600043067FF4C5AE50EA41047FF40DAF52EA43057FF4EBAE12E74FF0FF3C06E000BFF1
:200A80004FF0010C02E000BF4FF0010C4DF804CD4FEA410C7FEA6C5C4FEA430C18BF7FEA88
:200AA0006C5C1BD001B050EA410C0CBF52EA430C91EA030F02BF90EA020F0020704710F144
:200AC000000F91EA030F58BF994208BF90422CBFD8176FEAE37040F0010070474FEA410CFB
:200AE0007FEA6C5C02D150EA013C07D14FEA430C7FEA6C5CD6D152EA033CD3D05DF8040BC1
:200B0000704700BF8446104662468C461946634600E000BF01B5FFF7B7FF002848BF10F18C
:200B2000000F01BD4DF808EDFFF7F4FF0CBF012000205DF808FB00BF4DF808EDFFF7EAFF89
:200B400034BF012000205DF808FB00BF4DF808EDFFF7E0FF94BF012000205DF808FB00BF90
:200B60004DF808EDFFF7CEFF94BF012000205DF808FB00BF4DF808EDFFF7C4FF34BF0120C6
:200B800000205DF808FB00BF4FEA410212F5001215D211D56FF47873B3EB625212D94FEAF8
:200BA000C12343F0004343EA505311F0004F23FA02F018BF404270474FF00000704750EA6C
:200BC000013005D111F0004008BF6FF0004070474FF00000704700BF4A0011D212F50012B5
:200BE00011D20DD56FF47873B3EB62520ED44FEAC12343F0004343EA505323FA02F0704785
:200C00004FF00000704750EA013002D14FF0FF3070474FF00000704753B94AB9002908BF86
:200C200000281CBF4FF0FF314FF0FF3000F00CB8ADF1080C6DE904CE05F096F8DDF804E00A
:200C4000DDE9022304B07047704700BF10B5054C237833B9044B13B10448AFF30080012386
:200C6000237010BDD4050020000000000860000808B5034B1BB103490348AFF3008008BD56
:200C800000000000D80500200860000800B5C3B000F02CF800F056FC00F016FF00F00EFB6B
:200CA000022000F067FF00213C220CA80B9104F0B9FF00F095FF00F015FD00F06DFA402004
:200CC00000F04CFD0028F4D00BA901A800F038FD0028EED101A90BAA1BA800F0A3FD011EB5
:200CE000E7DD89B21BA800F0BFFAE2E7F0B5CBB002F0A8FC382200212BA804F093FF142200
:200D0000002106A804F08EFF4422002139A804F089FF002003F03EFE4FF480754023CDE9FF
:200D20002E53222702230125042655222BA8CDE93153CDE93462CDE936332B973393389332
:200D400003F080FE00B1FEE7CDE908000F2403230A90082106A8CDE9064304F0AFF800B1B9
:200D6000FEE74FF4405339934FF00073CDE9453039A804F08FF9044600B1FEE74FF0005340
:200D80000C934BF67F33CDE90E370B9020230D900BA8109304F0BAFA224621464FF0FF3010
:200DA00002F09EFC2A4BDA6C42F02002DA64DA6C02F020020192019ADA6C42F00102DA6419
:200DC000DA6C02F001020292029ADA6C42F00202DA64DA6C02F002020392039ADA6C42F008
:200DE0000402DA64DA6C02F004020492049ADA6C42F04002DA64DB6C03F0400305933422DA
:200E0000214611A8059B04F00DFF11A803F096F8179B03F4E063B3F5806F16D002F0CAFEB5
:200E200098B902F0E5FE014678B930221FA804F0F9FE4FF480631EA824931E96239502F00F
:200E40001FFF02F0E7FE02F0C7FE4BB0F0BD00BF0010024072B6BFF34F8FBFF36F8F70470E
:200E600062B6704718B102280CBF01200220704707B50E4B02689A4215D103F5DA33022182
:200E80009A6D42F400029A659B6D03F40003019300221420019B02F023FC142003B05DF83F
:200EA00004EB02F04FBC03B05DF804FB005C004000F50C71D0F8700202F05DB900EB4113B0
:200EC000D0F87002D3F83C2102F082B900EB4113D0F87002DA6B02F0B3B9D0F8700202F03B
:200EE00048BA8368022B10B5044600D0FEE7D0F87002012102F027FAD4F87002BDE8104072
:200F000002F0FAB910B50446D0F8700202F01EFAA36923B1024A136943F00603136110BDB4
:200F200000ED00E0836923B1044A136923F006031361D0F8700202F012BA00BF00ED00E046
:200F400070B51E4A05461E48C5F8C00208230024C0E9002301260223C0E90564C0E9074467
:200F6000C0F870528360036103F00BF922462146D5F8C002182303F0E0FC2246D5F8C0025A
:200F80005823802103F0D9FC2246D5F8C002C023812103F0D2FC22463146D5F8C0024FF47F
:200FA000887303F0CAFCD5F8C0024FF480732246822103F0C2FC204670BD00BF005C00400E
:200FC0005006002008B5D0F8C00203F039F9BDE80840FFF747BF10B51446D0F8C0021A463D
:200FE000234603F056F9BDE81040FFF73BBF08B5D0F8C00203F07FF9BDE80840FFF732BFDB
:2010000008B5D0F8C00203F02DFCBDE80840FFF729BF08B5D0F8C00203F05DFCBDE8084022
:20102000FFF720BF0A06D0F8C03245BF01F07F0103EB411303EB411393F82A0058BF93F8C1
:201040002A01704708B5D0F8C00203F00EF9BDE80840FFF707BF08B5D0F8C00203F092F9FF
:20106000BDE80840FFF7FEBE08B5D0F8C00203F06BF9BDE80840FFF7F5BED0F8C00203F020
:201080007AB9000010B5044611B101290DD010BD836923B10B4A136923F006031361D4F88B
:2010A0007002BDE8104002F05AB9D0F8700202F04DF9A369002BEAD0024A136943F006035D
:2010C0001361E4E700ED00E000487047F0050020704700207047000070B50C4E0C4B0D4D32
:2010E0000D49002422463046C3F80048C3F80448C5E9884402F052FAD5F82012304605EB71
:20110000811102F051FA204670BD00BFD0130020A0090020A81100206009002021280AD15C
:201120000023C2220B704A70CB7001220B714B7108238A708B7100207047000010B5144CC0
:20114000D4F82022D4F82402531C03F0070383420ED1052000F0BAFDD4F820120D4804EB71
:20116000811102F021FA0B4802F038FA012010BD8032096844F822100648C4F8203204EB8F
:20118000831102F011FA034802F028FA0020EEE7A8110020D0130020F8B52D4BD3F8B832B4
:2011A0005A6D6AB92B492C4DD1F80008D1F80438144698420FD10CB1C1F8040892B2BAB935
:2011C000264CFFF747FED4E988329A423BD1BDE8F840FFF745BE0132CC5C05F8014B013355
:2011E000402AC3F30A034FF00104E2D1C1F804381949174802F0D2F9154802F0DAF9DFE770
:2012000004EB831329789A5D0D2A13D1384600F077FB00232B700136D4F8243203F1800229
:2012200054F82220B242EBD8013303F00703C4F82432CCE79A2984BF00232B702B78591C97
:20124000FA542970E7E7064D064F0026E4E700BFD0130020A009002060090020A811002053
:20126000C4080020C508002038B504460D46FFF7F1FD114AD2F80038D2F804085919C1F3CE
:201280000A0181420BD020462544002185420BD109B1C2F80038BDE83840FFF7E1BDBDE810
:2012A0003840062000F012BD10F8011BD1540133C3F30A030121E9E7A009002008B50C49C4
:2012C0000C48002201F022FF00B1FEE70A49094801F031FF00B1FEE70849064802F057F9B4
:2012E00000B1FEE7034801F02DFF00B1FEE708BD44000020D01300203C01002000000020B1
:20130000122301480B80704730000020042301480B8070472C000020002370B54D1C1E46AA
:20132000DCB2A24200D870BD040FB0F1204F34BF3034373401F81340000105F81360013360
:20134000EEE700001A2310B50B800A4BD3F89005D3F8982580180AD0D3F89445064908225F
:20136000FFF7DAFF042210312046FFF7D5FF034810BD00BF0070FF1F120000201000002040
:2013800010B5044C04480A46214601F063FE204610BD00BF941600202060000810B5044C8A
:2013A00004480A46214601F055FE204610BD00BF941600202F60000810B5044C04480A46E2
:2013C000214601F047FE204610BD00BF941600206560000810B5044C04480A46214601F0DE
:2013E00039FE204610BD00BF94160020706000087047FEE7FEE7FEE7FEE7704770477047B2
:20140000014802F0D5BF00BF50060020FFF7F8BF08B502F02DF9BDE8084002F0B6B90000F8
:20142000024B4FF000629A60704700BF00ED00E070B5164E33783BBB154C164863604FF492
:201440004072C4E90223144A006812782274134A63740125126862610E210222C4E909057D
:201460002046C4E90651C4E90B12C4E90D33A3742262E36302F08EF9204602F06DFA35708D
:20148000BDE8704000F092BB70BD00BF9C310020A8310020A031002068000020A43100207A
:2014A00010B5074C2378012B08D1064802F06AFA00232370BDE8104000F040BB10BD00BFAE
:2014C0009C310020A8310020064B1B78012B07D00228054B14BF022205221A6000F02EBB54
:2014E000704700BF9C310020A0310020134B1B78012B21D009281AD8DFE800F01B050B0F76
:2015000011131517190D4FF4FA730D4A136000F015BBC823F9E77823F7E76423F5E7502301
:20152000F3E72823F1E71423EFE70723EDE70A23EBE74FF47A73E8E7704700BF9C31002042
:20154000A4310020314B2DE9F0419A6D304F42F000729A659A6D8AB002F000720192019AD7
:20156000DA6C42F00202DA64DA6C02F002020292029ADA6C42F00402DA64DA6C02F004024B
:201580000392039ADA6C42F00102DA64DB6C03F00103002401250226049305A94FF090405C
:2015A000049BCDE90555CDE9076402F01FFD224629464FF0904002F0DFFD4FF4005805A950
:2015C0003846CDE90585CDE9076402F00FFD2A464146384602F0D0FD4FF4407305A9CDE9A0
:2015E00005360C4809230993CDE9074402F0FEFC0420FFF77BFF3046FFF766FF064B074AA0
:201600001A60074B1C700AB0BDE8F081001002400008004800040048A83100200064004017
:201620009C310020064B1B78012B07D00038054B18BF01204000D86000F080BA704700BF3E
:201640009C310020A8310020054B1B78012B06D00038044B18BF0120187000F06FBA7047E8
:201660009C310020680000202DE9F0411C4F07F580580546B8F80039B8F80229013303F039
:201680003F0393420E4605D1042000F01FFB0120BDE8F081C06800F071F840288646F6D821
:2016A0000FCDB8F800C9242404FB0C7404F580540FC40FCD0FC42B68236007EB8C17B6441A
:2016C000764507D10CF1010C0CF03F0CA8F800C90020DDE716F8013B07F8013BF0E700BFBE
:2016E0009418002070B5144D144E05F58054B4F80229B4F800399A4203D0304602F054FA47
:2017000000B970BDB4F80229242101FB025101F5805105EB8212304602F068F9B4F802397D
:20172000013303F03F03A4F8023910B1022000F0CDFA00F003FADAE794180020A83100205C
:2017400010B502460B460448402102F0B7F9044600F02CFA204610BDA831002008B5054B43
:20176000187830B10448402102F014FA003818BF012008BD9C310020A8310020B0F5002F9C
:201780003CD021D8B0F5802F3AD012D8B0F5003F38D009D8002844D0B0F5803F08BF0120A7
:2017A00018BF4FF0FF307047B0F5403F08BF0320F6E7B0F5C02F27D0B0F5E02F26D0B0F568
:2017C000A02F08BF0520EBE7B0F5402F20D00AD8B0F5202F1ED0B0F5302F1DD0B0F5102FDF
:2017E00008BF0C20DCE7B0F5602F17D0B0F5702F16D0B0F5502F08BF2020D1E7082070472C
:20180000042070470220704706207047072070471820704710207047142070473020704791
:2018200040207047F8B50D46174600219B22044604F0F8F9AB69002B4DD1AB68002B45D176
:2018400074232370D5E90023B3F1804F03BF2378203B2370032304BF08232A68E1181846C2
:20186000013802F00F0610F0FF0001F801694FEA1212F5D15A1CE989A154E868FFF77EFF03
:20188000C2B2402A03F1020637D83A4607EB000C31464F1C624504EB0105FFB222D142007D
:2018A000D2B20333D0183244C0B2D2B2012661780136092994BF30313731F6B2C9B296429A
:2018C00004F8011FF3D30D232B70F8BDB3F1005FB8D17223B5E76B69B3F5801F0CBF62237E
:2018E0006423AEE715782D09655412F8015B023105F00F05E555C9B2CBE74FF0FF30E4E70E
:20190000F0B5ABB0044624220D4601A8002104F089F900213C220BA80A9104F083F9214600
:201920000122AA421BD32378642B27D8402B29D9413B232B26D8DFE803F046AC2D9E572559
:201940002525252525253F252825256B30A1254D2571362525252525252525A5259A4B780A
:20196000602B06D9573BDBB2013201F8013FD2B2D7E7402B8CBF373B303BF4E7722B4AD00B
:20198000742B4BD04FF0FF3002E0FFF751FD00202BB0F0BDFFF784FDF9E760780928F1D828
:2019A000FFF7A4FDF3E76078022802D1FFF78CFDEDE70528FAD0E5E76078012818BF0020D3
:2019C000FFF730FEE3E76078012818BF0020FFF73BFEDCE73A4B1C682046FEF711FC81B28B
:2019E0002046FFF741FCD2E700213C221BA81A9104F018F900F08AF940210346314A1AA849
:201A000001F0EEF81AA8FEF7FBFB81B21AA8E8E74FF0804302934FF000530393029BB3F17E
:201A2000804F14BF0322082201230021E05C013300EB0111D8B28242F8D2931C0132019177
:201A4000A05C079AB2F5001F2AD10F289AD800040490FFF793FEC2B2402A93D80AAD00223E
:201A60002946904220DC01A8FFF7FEFD8FE74FF400130793D2E74FF4001307934FF080437E
:201A80000293CBE74FF480134FF40010CDE90630C4E74FF480134FF40011CDE90631EDE754
:201AA000002AD4D10828D1E7E618E75C7678023306EB071605F8016BDBB20132D1E700BF5D
:201AC0006C0000208E6000081A4B70B5DA6C42F00102DA64DA6C88B002F001020192019AA0
:201AE000DA6C42F00202DA64DB6C03F00203029301240025029B05944FF4004303A94FF067
:201B00009040CDE90334CDE9065502F06FFACDE905450795084D4FF4006603A92846CDE932
:201B2000036402F063FA22463146284602F024FB08B070BD001002400004004838B50A4CCB
:201B400025687DB901F0A0FD084B1B68C01A192808D907482A464FF4006102F00DFB01F014
:201B600093FD206038BD00BF1C320020143200200004004838B504460025A54200D138BD78
:201B800001224FF400414FF0904002F0F5FA642001F080FD00224FF400414FF0904002F015
:201BA000EBFA642001F076FD0135E6E710B50A4C236883B901F068FD084B1B68C01A19282C
:201BC00009D901224FF400414FF0904002F0D4FA01F05AFD206010BD20320020183200203C
:201BE00010B500F08DF848B301F04EFD044600F087F8241AB4F5FA6F20D22C4C01F044FDCF
:201C00002368C01A962818D901F03EFD2060284C4FF4004122784FF0904002F0ADFA227830
:201C200024484FF4006102F0A7FA2378B3FA83F35B092370204B01221A7010BD1E4C237862
:201C40003BB11C4801224FF4006102F095FA002323701A4C236893B101F016FD2368C01A98
:201C600019280CD900224FF400414FF0904002F083FA0023236001F007FD114B1860114C4E
:201C80002368002BD9D001F0FFFC2368C01A1928D3D9084801224FF4006102F06DFA002314
:201CA000236001F0F1FC084B1860C6E70C320020113200200004004810320020203200206A
:201CC000183200201C32002014320020062810B504460ED801F0D8FC064B43F8240001F03D
:201CE000D3FC054B054A186011680123A3400B43136010BD2832002024320020443200206A
:201D0000014B1868704700BF24320020014B1868704700BF443200209A4238BF88547047CD
:201D200070472DE9F84F98460D9B15469A07DDE90B4906460F4623D02A460A9B03EB040A4E
:201D40001444A24220D10D9B9B0705D5A2EB050AD14505EB0A0420D82046BDE8F88F43466F
:201D600039462020B0470AF1010ACA450AEB0B02F5D3A9EB04024C4588BF00222A44DCE709
:201D8000A246A5EB040BF0E702F1010B1AF8010D43463946B0475A46D3E7434622463946FD
:201DA0002020B0470AF1010AD2E72DE9F0479E46DDE90D3C1CF0020FDDE90874DDE90B6558
:201DC0009DF828801FD10CF001094BB1B9F1000F06D0B8F1000F02D11CF00C0F00D0013B87
:201DE0004FF0300A02E007F804A00134A54201D9202CF8D1B9F1000F05D04FF03009A342EF
:201E000001D9202C1BD11CF0100F15D01CF4806F32D1C4B1AC4201D09C422DD1651E12D029
:201E2000102E3FD11CF0200FA4F1020456D178263E5530267E556C1C202C29D00DE007F844
:201E400004900134DBE7102E10D11CF0200F2FD178243C7030247C700224B8F1000F31D036
:201E60002D253D55013414E06224F2E7022EFBD030243C700124F0E7102E1BD11CF0200F9A
:201E80002AD1202C04D0651C78263E55202DD0D12024CDE90A3CCDE908747346BDE8F04780
:201EA000FFF73FBF022EC4D162247C550135EDE75824CEE7022E03D1202CE9D02546F3E789
:201EC0002546E3E71CF0040F01D02B25C9E71CF0080FDED02025C4E7202CD9D0651C582628
:201EE000D3E72DE9F04391B0189D1A9F1D9E2DB926F0100416F4806F264622D116F0200FD8
:201F000014BF4FF0410E4FF0610EAC460DF120080025AEF10A0EBCFBF7F907FB19C95FFADA
:201F200089F4B9F1090F94BF30347444E4B2BC4508F8014BBCFBF7F405F1010501D3202D51
:201F400010D11C9C05941B9C0696CDE903749DF86440CDE9015408AC0094FFF726FF11B067
:201F6000BDE8F083A446D6E72DE9F04F95B0DDE91E76CDE90A2357EA0603CDE90801DDE9FC
:201F8000229B269C05D124F0100314F4806F1C4637D114F0200F14BF412361230DF1300A3E
:201FA0000025A3F10A0831464A465B463846FEF733FED2B2092A94BF303242444F45D2B200
:201FC00076EB0B060AF8012B05F1010501D3202D14D1259B0593249B0694CDE903939DF8CD
:201FE0008030CDE901530CAB0093DDE90801DDE90A23FFF7DAFE15B0BDE8F08F07460E46C3
:20200000D1E70025E5E700002DE9F04F93B0CDE90A32DDE91C34CDE90634DDE91E530E93AF
:20202000DDE90623CDE9080110461946209EFEF779FD80B1DDE90601C74B4FF0FF32FEF79F
:2020400099FD40B9DDE906014FF0FF326FF48013FEF772FD80B10E9B2096CDE91E53DDE9DD
:202060000634DDE90801CDE91C34DDE90A3213B0BDE8F04F00F090B9DDE90601002200235D
:20208000FEF75AFD002800F03781DDE906A303F1004BCBF30A5016F48063A0F2FF3008BFE9
:2020A00006250F93FEF76CFA9BA3D3E90023FEF7D1FA9BA3D3E90023FEF716F9CBF3130425
:2020C000894644F07F518046A44B0022504641F44011FEF707F994A3D3E90023FEF7BAFA86
:2020E00002460B4640464946FEF7FEF8FEF74CFD0446FEF745FA8EA3D3E9002380468946E6
:20210000FEF7A8FA964B0022FEF7EEF8FEF73CFD89A3D3E90023074649464046FEF79AFA26
:20212000804638468946FEF72BFA85A3D3E90023FEF790FA02460B4640464946FEF7D2F87F
:2021400002460B46CDE90C23FEF784FADDE90C238046894610461946FEF7C6F8814BCDE91A
:202160001001002240464946FEF79EFB7E4B0022FEF7BAF802460B4640464946FEF794FBC5
:202180007A4B0022FEF7B0F802460B4640464946FEF78AFBDDE90C238046894600204FF0AA
:2021A0008041FEF79FF802460B4640464946FEF79BF802460B46DDE91001FEF775FB07F2CE
:2021C000FF376B4B0022FEF78FF800223B05FEF741FA52465B4680468946FEF7CBFC002831
:2021E00040F08D80CDE90C8904F16303C72B34BF0427052731051FD553A3D3E9002350462B
:202200005946FEF7ADFC002800F0B48050A3D3E9002350465946FEF78FFC002800F0AA806C
:20222000A542C8BF2C1B4FF00007CCBF04F1FF35002546F480663C460E9B9F4234BFA3EB1D
:2022400007084FF0000816F0020903D0002F18BF4FF000083CB150465946DDE90C23FEF7EB
:2022600023FB82468B46DDE9060100220023FEF763FC10B10BF100439B4626F40063CDE92D
:202280000383CDE900ABDDE90A32DDE90801029500F082F802465FB316F0200F00F10105FF
:2022A000DDE909130CBF65204520089EB0470523059300220A23002CCDE9023207F1FF3797
:2022C0004FEAD473B8BF644201932A46DDE908010A9B04970094FFF704FE0246B9F1000FC1
:2022E00006D00B9BC41A0B9B1A190E9BA3424AD8104613B0BDE8F08FDDE906ABC9E61A4B33
:20230000002240464946FEF7CFFA013CCDE90C016AE700BFAFF30080FB799F501344D33FCA
:20232000B3C8608B288AC63F61436F63A787D23F71A379094F930A401655B5BBB16B0240D0
:20234000EF39FAFE422EE63F2D431CEBE2361A3F0000000080842E41FFFFEF7F0000F83FCA
:202360000000E03F00002C4000002440000018400000F03F002D3FF45FAF0F9B002B3FF471
:202380005BAF013D58E7DDE90913089D2020A8470134A8E7000000002DE9F04F97B0DDE9DA
:2023A00020ABCDE90501CDE90723504652465B465946DDE92257249EFEF7B4FB70B9032354
:2023C000CDE922762193B44B2093DDE90501DDE9072317B0BDE8F04FFFF7A3BC4FF0FF321D
:2023E0006FF4801350465946FEF7A6FB28B104232193CDE92276A94BE6E7A94B4FF0FF32F5
:2024000050465946FEF7B6FB68B1A64A06F00403002B08BF0322A44B1CBF13460422CDE9C5
:2024200022762192D0E798A3D3E9002350465946FEF7A0FB38B996A3D3E90023504659467D
:20244000FEF77AFB68B1DDE90723DDE90501CDE92376CDE920AB229517B0BDE8F04FFFF715
:20246000D3BD0022002350465946FEF765FB002800F09A805B46524600200021FDF732FF2C
:20248000012382468B46099316F4806400F08E80092D40F28E800EABA5F1090200243021B2
:2024A0000134202C03F8011BA5EB040901D09442F6D159465046FEF767FB7C4B03EBC9036C
:2024C000D3E900230546CDE90A23FEF759F802460B4650465946FDF705FFDDE90A23FEF7FB
:2024E000B9F802460B46CDE90C23FEF775FB8046FEF736F802460B46DDE90C01FDF7F2FE0F
:2025000002460B46CDE90C23694B0022FEF732FB002851D008F101084046FEF721F802461E
:202520000B46DDE90A01FEF711FB10B101354FF00008B9F1000F50D12846FEF721F802469C
:202540000B4650465946FDF7CDFE594B002280468946FEF7F1FA30B1554B00224046494643
:20256000FEF708FB10B1E80700D501350EAB1A190A21202C0AD095FBF1F001FB1055303534
:2025800002F8015B013405460028F2D106F00302012A5FD1002F5DD0099A12B916F00C0F39
:2025A00000D0013F302244E009906DE74FF006097FE7A94600247CE7DDE90C013C4B002202
:2025C000FEF7BAFA0028B4D1B8F1000F02D018F0010FAED008F10108ABE70EAB23440A21A6
:2025E000202C0DD0B8FBF1F001FB10823032B8F1090F03F8012B09F1FF3904F1010411D831
:20260000A1440EAA3021202CB0D0A14504F101030AD11C4609F158030DEB03092E2309F839
:20262000203CA3E78046DBE7A1541C46EBE71A550134A7420ED9202CF9D1CDE90034CDE9D9
:202640000276DDE90723DDE90501FFF76AFB17B0BDE8F08F202CF0D0099A3AB104F1580217
:202660006A442D2102F8201C0134E6E7710704D504F158026A442B21F4E73207DDD504F1D1
:2026800058026A442021EDE70000000065CDCD410000000065CDCDC1E6600008EA6000087D
:2026A000FFFFEF7FDD600008E2600008F06000080000E03F2DE9F04F91B09B460B1E0A936B
:2026C000AC4B1A9E904614BF8146994600249BF8000060B944450A992CBF08F1FF32224683
:2026E00043460020C847204611B0BDE8F08F25280BF1010B06D022460A99651C4346C84788
:202700002C46E4E700230DE02D2A2AD0302A06D0303A092A4FF0000711D80A2532E043F0AB
:2027200001038B46594611F8012B2B2A1CD0EBD8202A1CD0232A1DD02A2A2BD000279BF873
:2027400000202E2A64D19BF80110A1F1300009280BF1010243F4806351D800254FF00A0C79
:2027600026E043F00203DCE743F00403D9E743F00803D6E743F01003D3E705FB0722A2F1A7
:2027800030078B46594611F8012BA2F130000928F3D9D4E756F8047B002FBCBF43F0020333
:2027A0007F428B46CBE70CFB0511A1F130050246104610F8011BA1F1300EBEF1090FF2D9CD
:2027C000114611F8010B6C282CD024D8682830D06A2837D011468B461BF8010B672875D8B5
:2027E00057284BD8452807D085D9462800F03181472880D143F4006343F0200341E12A2960
:2028000007D156F8045B0BF1020225EAE575D7E75A460025D4E7742801D07A28DAD143F49B
:202820008073D8E750786C28F9D143F44073911CD1E75078682802D043F08003CBE743F0AC
:20284000C003F4E743F40073C5E70A2A00F06681072A7FF450AF43F0210305930823CDE906
:2028600003531023CDE9011356F8043B00930A99434622464846FFF734FBFCE0A0F15802D7
:202880000F2A3FF638AF01A151F822F0FD280008F7260008F7260008F7260008F726000825
:2028A000F7260008F7260008F7260008F7260008F7260008FD280008A52A0008FD2800082E
:2028C0007B2A0008572A00087B2A0008A0F16902D2B20F2A3FF60FAF0121914049F2410CEE
:2028E00011EA0C01B1D0782803F4806122D1002900F0908023F00D02102307E0622803F4FE
:20290000806220D142BB23F00C02022312F4007100F08380CDE907720022CDE9043206F103
:20292000070A2AF0070A06950292FAE80223CDE900233DE06F2812D123F00C0209B123F0C7
:202940000D020823E2E7582816D1002A39D123F00C0242F02002CFE723F00D02D5E769283F
:2029600023F0100230D023F01C0209B123F01D020A23CBE7211D000842BB23F01002930536
:2029800027D5073626F00706B24676685AF8083B0695CDE907720A20F20F0021002ECDE976
:2029A0000401029202DA5B4266EB4606CDE900360A99434622464846FFF7D6FA04465646AE
:2029C00085E623F00D02C4E70029D8D023F01102D5E7D00506F1040A01D5336802E0510688
:2029E00013D533780395CDE904720A220292002B4FEAD3720192B8BF5B4200930A994346B1
:202A000022464846FFF76DFAD8E71306E5D5B6F90030E7E723F00C026EE7D00506F1040AD4
:202A200006D5CDE90472CDE9023501913368E4E7510608D53178CDE902350023CDE9047291
:202A4000CDE90013DAE7316812F0800F18BF89B2F1E743F02003CDE90373073626F00706F6
:202A60000295F6E802230A99CDE90023484643462246FFF791FC044629E6672801D143F44D
:202A80000063CDE90373073626F007060295F6E802230A99CDE90023484643462246FFF7BC
:202AA000B3FAE8E713F0020523D04FF0010A631C0B930A9916F8040B43462246C8475DB366
:202AC0000B9A54461EE00A9943462020C8470AEB04020AF1010A5745F5D8002F07F1FF337B
:202AE00008BF002307F1010A1C4408BF4FF0020ADDE7AA46EBE7551C0A9943462020C84705
:202B000001342A46BC42F6D30B9AA7EB0A03574538BF00231A440B920B9CD8E53246002D4B
:202B200052F8046B0B9214BF29464FF0FF3131443246107808B18A4211D1A2EB060A13F40E
:202B400080620C9202D0AA4528BFAA4613F002030D931BD1AAEB040322460F9308E0013208
:202B6000E7E7531C0E930A9943462020C8470E9A0F9BD3189F42F4D8A7EB0A03574538BFE0
:202B800000230AF101021C4403EB020AA31B0E9304E01D460A9943462246C8470E9BF418BC
:202BA00016F8010B28B10C9B002BF3D06B1E002DEFD10D9B93B12246AAEB040505E0561CCE
:202BC0000A9943462020C847324653199F42F6D8A7EB0A03574538BF00231C440B9E76E52E
:202BE0000CB41FB506AC0A4654F8043B0094014604480394FFF75EFD04B0BDE8104002B04A
:202C0000704700BF191D00080D4885460D480E490E4A002302E0D458C4500433C4188C42B6
:202C2000F9D30B4A0B4C002301E013600432A242FBD3FEF7F5FB02F0D1FFFEF727F8FEE71D
:202C40000080002000000020D405002068610008D405002054320020FEE710B580210446B6
:202C6000FEF7CEF920460021BDE81040FEF7C8B937B50B7803F06003202B04460D4611D018
:202C8000402B0FD06BBB4B78092B2AD8DFE813F0F600110129000A0129008E0013002900D2
:202CA000DE00AA00D4F8B43229469B6820469847002003B030BD0023ADF806304B881A0A6E
:202CC000013A0E2A0DD8DFE802F010222F0C0C4F590C0C0C0C0C0C0C0800D0F8B032DB6978
:202CE00033B92046FFF7B9FFE2E7D0F8B0321B68207C0DF106019847BDF80620EB88002AE6
:202D000050D0002B45D1204600F0EAF9D0E7027CD0F8B43232B99B6A0DF10600984702233E
:202D20004370E9E7DB6AF7E7DBB2052BD9D8DFE803F003070B0F1317D0F8B0325B68CFE754
:202D4000D0F8B0329B68CBE7D0F8B032DB68C7E7D0F8B0321B69C3E7D0F8B0325B69BFE78D
:202D6000D0F8B0329B69BBE7037C002BB9D1D0F8B4320DF106005B6B9847BDE7037C002B2A
:202D8000AFD1D0F8B4320DF106001B6B98470723C6E79A4228BF1A4601462046ADF806202A
:202DA00000F074F9EB88002B82D1ACE78B88002B97D1CB88002B94D14D887F2D91D890F837
:202DC0009C32032B8DD0E9B280F89E12FEF73AF9204600F085F91DB1022384F89C3267E750
:202DE0000123FAE78978394D012929703FF679AF90F89C32022B08D0032B15D0FFF72DFF97
:202E00002978204600F0B0F952E700293FF47BAF01210323416080F89C32204600F097F93E
:202E200002287FF470AF5CE731B9022380F89C32416000F099F966E7416801293FF463AFB6
:202E4000C9B200F091F929786160E6E7CA88012A7FF447AF90F89C32022B0AD8002B3FF4A5
:202E600040AF0146002341F8083F204600F00EF91EE7032B7FF435AF011DF6E790F89C3241
:202E8000013B022B3FF62DAFCA88022A7FF429AFD0F8A4320146002B0CBF0123032341F891
:202EA0000C3FE2E74B88012B7FF402AFC4F8A43229E790F89C32013B022B3FF612AF4B88B1
:202EC000012B7FF4F5AE0023F0E700BF4832002038B50B7803F060025B0604460D4601D5C4
:202EE000402A15D194F89C32013B022B10D82B79012B0DD8D4F8B43229469B6820469847B9
:202F0000EB881BB910B9204600F0EAF8002038BD2046FFF7A2FEF9E738B50A788D8802F002
:202F20006002202A04460B4627D0402A25D092BB5A78012AE9B23ED0032A26D05ABB90F841
:202F40009C32022B4ED0032B25D101F00F03142215F0800F02FB030353D09B69DBB101F0C0
:202F60007F05013505EB850500EB85054B0654D100232B60022229463FE0D4F8B4221946D1
:202F8000926820469047002038BD90F89C22022A1FD0032A03D02046FFF75FFEF3E75A880F
:202FA0002AB94A0603D0DB880BB9FEF729F8204600F096F8E7E790F89C22022A09D0032AA4
:202FC000E9D15B88002BDED14D06F0D0FEF721F8EDE74B06DFD0FEF713F880212046FEF789
:202FE0000FF8D0E74906D6D12A064CBF00F1140100F5AA7100230B600222204600F046F886
:20300000C1E7D3F85831002BC5D001F07F05142303FB050505F5AA75A8E72046FEF702F843
:203020000028A5D00123A4E70B7803704B7843704B8843808B888380CB88C380704710B51A
:2030400080210446FDF7DCFF20460021BDE81040FDF7D6BF70B50D461646044670B1FDF77E
:20306000CFF8C3B201335B0033802B7003236B70013C0223002014F8011F01B970BD5A1C2B
:20308000D2B2E9540233A854DBB2F4E710B513460222C0E90733C0F894220A460021FDF7DE
:2030A000DAFF002010BD08B513460A460021FDF7D2FF002008BD10B513460322C0E95733A3
:2030C000C0F894220A460021FDF7CEFF002010BD08B513460A460021FDF7C6FF002008BD3E
:2030E00008B50423C0F8943200231A461946FDF7B2FF002008BD08B50523C0F8943200237C
:203100001A461946FDF7B0FF002008BD08B580B1D0F8B43213B10023C0F8B43209B1C0F8D5
:20312000B012012380F89C320270FDF709FF002008BD0220FCE719B1C0F8B41200207047EC
:203140000220704708B5FDF73DFF002008BD08B5D0F8B43233B11B689847003818BF0120E3
:20316000400008BD0220FCE708B5D0F8B4325B689847002008BD38B5044600F52A7528461A
:20318000FFF752FF012394F8A812C4F89432B4F8AE32C4F8983201F01F03012B08D0022BA6
:2031A0000BD07BB929462046FFF762FD002038BD29462046FFF78CFEF8E729462046FFF7C2
:2031C000ABFEF3E701F080012046FDF719FFEDE770B50446164639BBD0F89422032A1CD15D
:2031E000D0E9585295420BD9AD1AAA42C0F860518CBFAAB292B23146FFF76AFF002070BD87
:20320000D0F8B4321B6923B190F89C22032A00D198472046FFF764FFF0E7052AEED1C4F845
:203220009412FDF7EDFEE9E7D0F8B4329B692BB190F89C22032A01D19847DFE70220DEE7DA
:20324000F8B5044613460F46002949D1D0F89422022A3AD1D0E90856B54211D9AD1B1946B2
:203260000562AAB2FFF71FFF3B461A4619462046FDF7FAFE94F8A032012B2DD00020F8BD89
:20328000C369B3FBF6F506FB153565B99E420AD8D0F89822934206D22A46FFF704FFC4F8EA
:2032A00098522B46E1E7D4F8B432DB682BB194F89C22032A01D12046984780212046FDF791
:2032C0009FFE2046FFF717FFD4E732F00403D1D18021FDF795FECDE7002384F8A032CDE758
:2032E000D0F8B4325B692BB190F89C22032A01D19847C3E70220C2E770B5002204461146FF
:20330000012540264023FDF766FE33468021C4F85851C4F8646100222046FDF75CFED4F8C4
:20332000B832A5610021666284F89C52C4F894126160C4F8A41223B1D4F8B43220465B6806
:203340009847002070BD01740020704790F89C3280F89D32042380F89C320020704790F88C
:203360009C32042B04BF90F89D3280F89C320020704708B590F89C22032A04D1D0F8B43266
:20338000DB6903B19847002008BDD0F8BC3210B56BB1D0F8B84294F84000FF2807D09B684B
:2033A00094F8412021469847FF2384F84030002010BD00004323038000487047B400002023
:2033C0004323038000487047F80000204323038000487047700000200A23038000487047C6
:2033E0007401002038B50446D0F8B852FDF745FED4F8B832E86443B1D4F8BC32686CDB6831
:2034000005F14C019847002038BD0220FCE770B5D0F8B862BEB1142202FB0102D0F8C052EA
:20342000D3696BB105EB4114A46BB3FBF4F504FB15332BB9D3611A46FDF70DFE002070BD3E
:2034400000237365FAE70220F9E7F7B50F78D0F8B86200238DF80530ADF8063017F0600357
:2034600004460D4622D0202B3AD1CA884B78BAB139060BD5D0F8BC1218468F683146B84767
:20348000EA8831462046FFF701FE06E086F8403086F841203146FFF70EFE002003B0F0BD3C
:2034A000D0F8BC0284681846A047F6E74B780A2B0AD00B2B10D09BB990F89C32032B0FD1D8
:2034C00002220DF10601DEE790F89C32032B07D101220DF10501D6E790F89C32032BDCD08E
:2034E00020462946FFF7ABFD0220D7E738B5044600258121FDF77BFD0121E5622046FDF74C
:2035000076FDC4F86C5182212046FDF770FDD4F8B83225644BB1D4F8BC325B689847D4F8F2
:20352000B802FDF7D5FDC4F8B852002038BD70B504460125402302228121FDF74CFD4023D2
:2035400002222946E5622046FDF745FD082303228221C4F86C512046FDF73DFD25645C20F0
:20356000FDF7B2FD0646C4F8B80270B1D4F8BC321B68984700237365726CB36529464023E6
:203580002046FDF771FD002070BD2846FCE719B1C0F8BC120020704702207047D0F8B83213
:2035A000002099641A657047D0F8B832002059647047D0F8B82210B562B1546D01235CB9FE
:2035C0005365136D0363926C9BB28121FDF743FD204610BD0220FCE71846FAE7D0F8B82213
:2035E00008B532B1526C40230121FDF73DFD002008BD0220FCE7704738B50F4B1A68054605
:203600000AB9012038BD4FF47A73B3FBF2F30B4A1068B0FBF3F000F0A3F804460028F0D1F5
:203620000F2DEED8024629464FF0FF3000F058F8034B20461D60E5E7800100206400002001
:2036400084010020094A136823F4806310B50320136000F033F80020FFF7CEFF044618B989
:20366000FFF7C9FF204610BD0124FBE700200240034A0449136809680B441360704700BF32
:203680004C32002080010020014B1868704700BF4C32002038B50446FFF7F6FF631C1CBF8F
:2036A000054B1B68054618BFE418FFF7EDFF431BA342FAD338BD00BF800100200749CA6850
:2036C00022F4E0620302120403F4E063120C134343F0BF6343F40033CB60704700ED00E05B
:2036E000164B30B5DC68C4F30224C4F10703251D042B28BF0423062D4FF0FF358CBF033CF5
:20370000002405FA03F321EA0303A54022EA0502A340002843EA0203ACBF00F16040084AFC
:203720004FEA0313B8BF00F00F00DBB2AABF00F56140135480F8003330BD00BF00ED00E0AD
:2037400014ED00E0002807DB4109044A00F01F000123834042F82130704700BF00E100E02E
:203760000138B0F1807F0BD24FF0E023054A5861F02182F823100020072298611A61704717
:203780000120704700ED00E0704708B5FFF7FCFF08BD704738B50446002800F0BA8090F892
:2037A0005C3003F0FF021BB980F85D20FFF7F1FF2268936923F010039361FFF765FF054695
:2037C00023689A69110700F197809A6942F001029A61FFF759FF054623689A69D20740F1D7
:2037E0009A809A6942F002029A61574A934204BF6168C2F80011227C012A9A690CBF22F005
:20380000400242F040029A61627C012A9A690CBF42F4804222F480429A61A27C012A9A6909
:203820000CBF22F4805242F480529A619A69A06822F4407202439A619A6922F0A4029A6109
:203840001A6922F010021A61E268012A6AD19A6942F004029A61A269511EE269013A12024C
:2038600042EA4162216A01390A436169013942EA0142B0F5407FDA610ED1E26A511E226B2E
:20388000013A120142EA0122A16A01390A43616A013942EA0142DA60D3F8C020E16B2B48E1
:2038A0000A43C3F8C020D3F88020616B206422F4F81242EA0142C3F88020254A6264D3F87B
:2038C0008020A16B22F0706242EA0162C3F88020204BA364D833E364D83323651833636504
:2038E0004FF45472002102F09DF9002001232066A06584F85C300DE0FFF7C6FE401B0A280B
:203900007FF65EAF236E43F001032366032384F85C30012038BDFFF7B7FE401B0A287FF6E3
:203920005BAFEFE7002A96D0022A09D0996941F0800199611969032A41F0100119618AD19E
:203940009A6942F0200285E70064004000A4004070A40040B0A4004090F85C30012B0BD118
:203960000268022380F85C30936923F0010393610023036618467047036E43F004030366F8
:203980000120704790F85C20022A034628D10268916941F0010191610C219069C00711D581
:2039A000916921F0100191610C21906910F0080013D1916941F0020191610122986583F82C
:2039C0005C2070470139E8D11A6E42F001021A66032283F85C20012070470139E5D1F3E7C6
:2039E000026E42F008020266F5E700002DE9F04390F85C30022B914659D10668D6F8C4400C
:203A000014F4001405D0036E43F400730366012031E0D1E90032D6F8C450D1F810C08F68A1
:203A2000C5F301454ABB47EA0C0E4EEA834CD1E906733B434F69D0F854803B43CF683B43F9
:203A40000F6A43EA076348276F4307EB080E47F808C0194FCEF804304A460EF1080ECB89CB
:203A6000FB5C9C4202F104020ED30123AB40C6F8CC3083650020BDE8F08343EA0C0C4CEAD3
:203A8000070C4CF0804CD2E712F8023C12F801CC1B0443EA0C6312F804CC43EA0C0312F858
:203AA00003CC43EA0C234EF804300434D7E7036E43F00803AAE700BF40610008F0B590F896
:203AC0005C40022C5FD1402904684AD1D4F890502E0705D1036E43F4807303660120F0BD73
:203AE000D4F89050846CC5F30125482606FB0544276807F0804757602668002F3BD1C6F30E
:203B00008A4616602668DFF888C006F000569660266806F000461661A688D661666806F402
:203B20007026D660666806F480165661666806F400169661E67906F07F0616626668F60FAA
:203B4000566207340026D7891CF80770B74215D8036840290CBFC3F89450C3F89C50002076
:203B6000BDE7D4F898502D07B4D0D4F89850C46CC5F30125B9E726F06046C2E714F8017FE2
:203B80009F550136DFE7036E43F00803A5E700BF40610008036840290CBFD3F89000D3F8CC
:203BA000980000F00F0070470368D3F8C40000F007007047064B5A69002ABFBF054A9A600A
:203BC00002F188329A60BABF5869C00F002070470020024023016745044B5A6942F00042A6
:203BE0005A615869C043C00F704700BF00200240064B586910F0804007D0054ADA6002F17A
:203C00004432DA605869C0F380707047002002403B2A1908054B5A6942F080425A6158696E
:203C200080F08040C0F38070704700BF0020024070B50646FFF728FD0F4C05462369DA033E
:203C40000BD423694CF2FA3213400DD00B494A681A434A600120236170BDFFF715FD401B1D
:203C6000B042EBD90320F7E72369DB0744BF012323610020F0E700BF0020024088010020B3
:203C80002DE9F843DFF8A88298F80030012B044600F04C810127002388F80070C8F80430B0
:203CA00003683B4066D0D0E90195C6684FF47A70FFF7BEFF88B99F4BB9F1000F53D145EA54
:203CC0000645DD625A6942F400325A614FF47A70FFF7AEFF071E18BF012723689D0707D575
:203CE0004FF47A702569FFF7A3FF002844D001272368580708D54FF47A70D4E90565FFF7FC
:203D000097FF002849D00127236818070CD5D4E90896B14508D04FF47A70E569FFF788FFF8
:203D2000002800F0B780012723689A0609D54FF47A70D4E90B65FFF77BFF002800F0D080D1
:203D400001272368DB0608D54FF47A70A46AFFF76FFF002800F0D8800127002388F80030E8
:203D60003846BDE8F883B9F1010F04BF45EA06451D63A7E71F46B0E76E4A136A23F0FF035A
:203D80002B431362536943F4003353614FF47A70FFF74EFF0028ABD0A9E716F001030EBFEC
:203DA0001A4605F4E0634FF4E062B10742BF05F480510B4342F48052700742BF05F4005147
:203DC0000B4342F40052F10442BF05F480410B4342F48042300742BF05F480310B4342F4B1
:203DE0008032F10642BF05F400310B4342F40032B00642BF05F480210B4342F4802271064B
:203E000042BF05F400210B4342F40022B00542BF05F400010B4342F40002710542BF05F03F
:203E200080710B4342F08072300542BF05F000710B4342F00072B10442BF05F080610B43B7
:203E400042F08062700444BF05F000610B43394848BF42F00062310442BF05F040510B430D
:203E600042F04052016AF60342BF05F0804542F080422B4321EA020213430362436943F450
:203E8000003343614FF47A70FFF7D2FE00283FF43BAF38E7E9070FD5264A2749536A09F189
:203EA00078490B4043EAD9035362936A06F178460B4043EAD60393621E4A936A05F00045A1
:203EC00023F000432B439362536943F4003353614FF47A70FFF7ACFE00283FF425AF22E74A
:203EE000144A012E01BF136F23F07F032B431367536943F4003353614FF47A70FFF798FEE3
:203F000000283FF41EAF1BE70A4A136F23F4803323431367536943F4003353614FF47A70F0
:203F2000FFF786FE00283FF418AF15E7022717E7880100200020024000C0FFFF4268062326
:203F4000012A03600CD807230360264B002A43D1DA6A02F03F028260DB6AC3F30543C360F4
:203F6000204A136ADBB2AA2B03D0CC2B0CBFCC23BB230361136A23F0FF038361C369012B64
:203F800016D1036843F008030360516A164B03EAC10101F100610162916A03EAC10303F10D
:203FA00000634362936A03F0004343F00103C36103680C4943F0100202600A6F02F48032E3
:203FC0008262C26A012A06D143F0300303600B6F03F07F03036370471A6B02F03F02826060
:203FE0001B6BBAE700200240F8FF01002DE9F74FDFF878815E4C00234FF00F090A6832FA52
:2040000003F502D103B0BDE8F08F012505FA03FA1AEA020200F09D804D6825F0100EBEF130
:20402000020F11D1DF0800EB870703F0070C3E6A4FEA8C0C09FA0CFB26EA0B0B0E6906FA07
:204040000CF646EA0B063E62D0F800B04FEA430C032606FA0CF72BEA070BFE4305F00307EA
:2040600007FA0CF70EF1FF3E47EA0B07BEF1010F076011D8876806EA070ECF6807FA0CF77F
:2040800047EA0E078760476827EA0A0EC5F300179F4047EA0E074760C76837408E6806FAE4
:2040A0000CF63E43C660EE0053D5D8F8606046F00106C8F86060D8F8606023F0030707F14F
:2040C000804706F0010607F58037019603F0030C019EBE684FEA8C0C09FA0CFEB0F1904FAD
:2040E00026EA0E0E37D0234EB04236D006F58066B04234D006F58066B04232D006F5806697
:20410000B04230D006F58066B04214BF0626052606FA0CF646EA0E06BE602668D74315F49B
:20412000803F0CBF3E4016432660666815F4003F0CBF3E4016436660A66815F4801F0CBF99
:204140003E401643A660E668AD0254BF3E401643E660013352E70026DAE70126D8E70226F3
:20416000D6E70326D4E70426D2E700BF0010024000040140000400480AB1816170478162E2
:20418000704770B5044686B0002857D090F8293203F0FF021BB980F82822FCF769FE032387
:2041A000206884F8293201F0E2F80021656801260846CBB29D4201F101011ED800200246C4
:2041C000C3B29D4200F1010026D804F110060FCE6D460FC533682B60231D0ECB206801F074
:2041E000D0F8002384F82430012384F82932E369012B1FD0002006B070BD04EB4312C2E9B0
:204200000E0082F82830D38602335B0182F8296082F82B00E050CCE704EB4311C1E94E22EC
:2042200081F828310A335B0181F8292181F82B21E250C5E7204600F097FBDBE70120DAE721
:2042400010B590F82832012B04460CD0012380F82832006801F056FB206801F07DF80020B7
:2042600084F8280210BD0220FCE710B590F82822012A04460BD0012280F8282280F824104E
:20428000006801F039FB002084F8280210BD0220FCE770B501F00706740111F0800F054686
:2042A00020461ED0284404F128010124294480F829400A614A780E70CB7002B1CE81022B98
:2042C00004BF00230B7195F82832012B11D00123286885F8283201F071F8002085F82802DC
:2042E00070BD284404F594710024294480F82941DFE70220F4E710B5044601F007004301A6
:2043000011F0800F1A4615D0224403F128010123214482F82930087094F82832012B11D07E
:204320000123206884F8283201F0AAF9002084F8280210BD224403F594710023214482F86F
:204340002931E8E70220F4E770B501F0070600EB46150024C5F83C21C5F84031C5F8444120
:2043600085F8294185F8286105F59471006801F0E9FA204670BD01F0070100EB4110D0F885
:204380004401704770B501F0070600EB46140025236421460123E263656484F8293084F823
:2043A00028602831006801F0CDFA284670BD00002DE9F0470446006801F0AFFA010406D5E8
:2043C000C54E2068B0F844301A0400F1D080206801F0A3FA42050FD52268B2F8443023F4C7
:2043E00080631B041B0C2046A2F84430FCF779FD00212046FFF739FF206801F08EFA4304BA
:2044000008D52268B2F8443023F480431B041B0CA2F84430206801F080FA870408D5226804
:20442000B2F8443023F400531B041B0CA2F84430206801F072FAC60426D52268B2F8403052
:2044400023F004031B041B0CA2F84030B2F8403023F008031B041B0CA2F8403094F860324C
:20446000012B05D1002184F860122046FCF70AFE2046FCF757FD2268B2F8443023F480538B
:204480001B041B0CA2F84430206801F046FA05051DD52068B0F840309BB243F00803A0F850
:2044A0004030B0F8443023F400631B041B0CA0F84430B0F840309BB243F00403A0F84030FD
:2044C00001F02BFAC00402D42046FCF71BFD206801F023FA010629D52368B3F8442022F074
:2044E00080021204120CA3F8442094F86022002A40F0B181B3F8402092B242F00402A3F84B
:204500004020B3F8402092B242F008020121A3F8402084F86012B3F85430C3F38D0303F03D
:204520003C03C4F864322046FCF7ACFD206801F0F4F982050BD52268B2F8443023F40073E9
:204540001B041B0CA2F844302046FCF7C6FC206801F0E3F9C30508D52268B2F8443023F433
:2045600080731B041B0CA2F84430BDE8F087B0F84470B9B217F00F0740F0B98011F0100179
:204580002BD103889BB2334043F400430380B0F8503094F8282000F2024010FA83F32046C1
:2045A00033F83230E26BC3F309031A446364E263FCF78CFC94F82430002B3FF402AF226CFD
:2045C0002168002A7FF4FDAE94F8243043F08003A1F84C3084F82420F3E60588ABB215F4D3
:2045E000006520D0B0F8503094F8282100F2064111FA83F304F50C7133F83230B4F82E21B1
:20460000C3F30903C4F8443101F0B0FA2268138823F070031B051B0D43F08003138020466A
:20462000FCF746FCCDE61B047FF5CBAE038823F070031B051B0D43F080030380B0F85030CC
:2046400094F8282100F2064111FA83F333F83230C3F30903C4F844318BB1D4F83C1171B1D4
:20466000B4F82E2101F082FAD4F83C31D4F844211344C4F83C3129462046FCF71FFC21687C
:20468000D4F83851B1F8503001F206409BB2DDB9C25A22F4F8421204120CC252C25A6FEA57
:2046A00042426FEA524292B2C2520B8823F4804323F070031B041B0C83F4405343F4004374
:2046C00043F080030B807CE63E2D07D86A08EF0748BF01329202E6E70F8FFFFF6F09604A2C
:2046E000ED0608BF07F1FF3742EA8722DBE70FFA87F830F8283019041FFA83FA40D530F843
:20470000283023F070031B051B0D43F0800320F8283004EB47114FEA471991F83431002B54
:2047200058D1B0F8503091F8282100F2064515FA83F333F83250C5F3090535B1B1F82E2143
:20474000D1F83C112B4601F011FA04EB481304EB0901D3F844212A44C3F84421D1F83C21AF
:204760002A44C1F83C21D3F840311BB1D1F83801854267D2A144204699F82811FCF79EFB0A
:204780001AF0800F22683FF41CAE32F828309BB2334043F4004322F8283004EB4717B2F8D4
:2047A000503097F8281002F2024212FA83F304EB481833F83130C3F30903C8F84430FA6BC2
:2047C0001A44FA63D8F840302046002B40D1FCF77DFBF6E591F8282130F8223013F4804FD4
:2047E000B0F850304FEAC20212FA83F303441FD0B3F80254C5F3090535B1B1F830212B46C4
:20480000D1F83C1101F0B2F904EB0903226893F8281132F8213023F4E04323F070031B0443
:204820001B0C43F4004343F0C00322F821308CE7B3F80654C5F30905002DE5D0B1F832215A
:204840002B46DDE791F828112046FFF77DFD97E7FFF798FDB5E52046FCF754FB66E600BF35
:204860000080FFFF38B5436801F007059D4204460A462CD811F0800F4FF020031DD003FBCB
:20488000050100EB45130122283183F8292001238B700D7094F828229A421AD0206884F853
:2048A000283200F0C0FF25B9206804F50C7101F038F8002084F8280238BD03FB010300EB4A
:2048C000421203F59471002382F82931DFE70120F2E70220F0E738B5436801F00F029A4261
:2048E000044626D801F00700430111F0800F1A4617D0224403F128010123214482F829307E
:2049000000258D70087094F82832012B13D00123206884F8283200F0A6FF84F8285228468D
:2049200038BD224403F594710023214482F82931E6E70120F4E70220F2E711F0800F1BBF95
:2049400001F0070100EB411000EB4110283008BF00F5947099B21AB90273C1800020704723
:20496000012202738360F9E7034601210268C0F86812002083F86002B2F854309BB20B430F
:20498000A2F85430B2F854309BB243F00203A2F854307047284B1A6818BB02F4C062B2F5EA
:2049A000806FD3F8802022F48072C3F8802040D11A6822F4C06242F400721A601F4A12686A
:2049C00032214A431E49B2FBF1F201325969490500D522B95B6958052BD503207047013AD7
:2049E000F4E7B0F5007F1FD102F4C062B2F5806FD3F8802042F48072C3F8802019D11A68C0
:204A000022F4C06242F400721A600C4A126832214A430B49B2FBF1F2013259694905D9D5B7
:204A2000002AD7D0013AF8E722F4C06242F480621A600020704700BF0070004064000020F7
:204A400040420F002DE9F341044640B30368D90714D423689A075BD42368190700F1A480F0
:204A600023685A0700F1CB8023689A0600F13281E369002B40F06081002028E0A14DAB688E
:204A8000EA6803F00C030C2B0BD102F00303032B09D12B689B03DCD56368002BD9D101200C
:204AA00015E0082BF4E76368B3F5803F12D12B6843F480332B60FEF7E7FD06462B689F037C
:204AC000C7D4FEF7E1FD801B6428F7D9032002B0BDE8F081B3F5A02F04D12B6843F48023CD
:204AE0002B60E4E72A6822F480322A602A6822F480222A60002BDED1FEF7C6FD06462B6837
:204B00009903A6D5FEF7C0FD801B6428F7D9DDE77C4DAB68EA6803F00C030C2B17D102F0D0
:204B20000303022B15D12B685A0502D5E368002BB5D06B68226923F0FE4343EA02636B6089
:204B4000714B1868FEF758FD002885D0A7E7042BE8E7E368BBB12B6843F480732B60FEF7D2
:204B600093FD06462B685B0507D56B68226923F0FE4343EA02636B606EE7FEF785FD801B14
:204B80000228EFD9A2E72B6823F480732B60FEF77BFD06462B685F057FF55EAFFEF774FDDB
:204BA000801B0228F6D991E76369564D9BB1D5F8943043F00103C5F89430FEF765FD064642
:204BC000D5F894309B073FF54BAFFEF75DFD801B0228F5D97AE7D5F8943023F00103C5F8CC
:204BE0009430FEF751FD0646D5F894309F077FF537AFFEF749FD801B0228F5D966E7414D28
:204C0000AB6DD80027D4AB6D43F08053AB65AB6D03F080530193019B01273C4E3368D90542
:204C20001BD5A368012B29D1D5F8903043F00103C5F89030FEF728FD41F288380646D5F8EC
:204C400090309B0740D5002F3FF40EAFAB6D23F08053AB6508E70027DFE7336843F480730F
:204C60003360FEF711FD80463368DA05D9D4FEF70BFDA0EB08000228F6D927E7052B06D113
:204C8000D5F8903043F00403C5F89030CCE7D5F8902022F00102C5F89020D5F8902022F08F
:204CA0000402C5F89020002BC4D1FEF7EDFC41F288380646D5F890309907C4D5FEF7E4FC09
:204CC000801B4045F6D901E7FEF7DEFC801B4045B5D9FBE6A3690B4DD3B1D5F8983043F0EF
:204CE0000103C5F89830FEF7CFFC0646D5F898309B073FF5BDAEFEF7C7FC801B0228F5D9FE
:204D0000E4E600BF001002408401002000700040D5F8983023F00103C5F89830FEF7B4FC8D
:204D20000646D5F898309F077FF5A2AEFEF7ACFC801B0228F5D9C9E6484DAA6802F00C02A2
:204D40000C2A57D0022B2B6823F080732B603AD1FEF79AFC06462B6899012ED4EA68404BB7
:204D60001340226A1343A26A43EA0223E26A43EAC263626A013A43EA0213226B5208013A97
:204D800043EA4253626B5208013A43EA4263EB602B6843F080732B60EB6843F08073EB60CA
:204DA000FEF772FC04462B689A013FF565AEFEF76BFC001B0228F6D988E6FEF765FC801B02
:204DC0000228C8D982E6EB6823F00303EB60EB6823F0887323F48033EB60FEF755FC0446E3
:204DE0002B689B017FF548AEFEF74EFC001B0228F6D96BE6012B3FF452AEEB68226A03F045
:204E0000030191427FF44BAE616A03F0F0020139B2EB011F7FF443AEA16A03F4FE42B2EB65
:204E2000012F7FF43CAEE16A03F07842B2EBC16F7FF435AE226B520803F4C001013AB1EB54
:204E4000425F7FF42CAE626B5208013A03F0C063B3EB426F14BF0120002038E60010024019
:204E60000C809F01134B9A6802F00C02042A1DD09A6802F00C02082A18D09A6802F00C026D
:204E80000C2A15D1DA68D968D868DB680A4AC3F34163C1F30311C0F30620013301315B00E0
:204EA000B2FBF1F25043B0FBF3F070470248704700207047001002400024F4002DE9F843F7
:204EC0000E46054610B90120BDE8F8836A4A136803F00F038B422CD32A68D00734D4910720
:204EE00065D4654C236803F00F03B34200F2A7802A68624C12F0040F40F0B780130706D579
:204F0000A3682A6923F4605343EAC203A360FFF7A9FFA3685A4AC3F30313D35C03F01F03D7
:204F2000D840584B1860584B1868BDE8F843FEF763BB136823F00F030B431360136803F059
:204F40000F038B42BFD1C7E76F684C4C032F236856D19B01B7D5E368E068E3684B49C0F394
:204F60000310C3F306230130B1FBF0F14B43E168C1F3416101314900B3FBF1F344498B42ED
:204F80002CD84FF00008A36823F003033B43A360FEF77AFB41F288390746A3686A6803F0A6
:204FA0000C03B3EB820F3AD12A6891073ED5334B12F0040F1EBF996841F4E0619960120772
:204FC00041BF9A6822F47C5242F4E0629A609A68A96822F0F0020A439A6082E7A36813F0A4
:204FE000F00F04D09007CCD5AB68002BC9D1A36823F0F00343F08003A3604FF08008C2E794
:20500000022F09D113F4003F3FF45DAFFFF72AFF1F4B9842B5D9EAE713F4806FF4E7FEF778
:2050200033FBC01B4845B8D903204DE7B8F1000F3FF457AFA36823F0F003A36051E723682A
:2050400023F00F0333432360FEF71EFB41F288380746236803F00F03B3423FF449AFFEF73F
:2050600013FBC01B4045F4D9DEE7A368E96823F4E0630B43A36041E700200240001002404D
:205080007E60000864000020840100200024F40000B4C4042DE9F3410446006810F400204D
:2050A00056D0984DAB6DD80044D4AB6D43F08053AB65AB6D03F080530193019B0126924F99
:2050C0003B6843F480733B60FEF7DEFA80463B68D90531D5D5F89020236C12F440721FD09B
:2050E0009A4211D0D5F89030D5F8902042F48032C5F89020D5F8902023F4407322F4803285
:20510000C5F89020C5F89030DA0709D5FEF7BCFA41F288380746D5F890309B0740F1EB8030
:20512000D5F89030226C23F440731343C5F89030002008E00026C2E7FEF7A6FAA0EB0800B8
:205140000228C4D903201EB1AB6D23F08053AB652368DE0708D56B496568D1F8882022F037
:2051600003022A43C1F888209D0708D56549A568D1F8882022F00C022A43C1F88820590761
:2051800008D56049E568D1F8882022F030022A43C1F888201A0708D55A492569D1F8882019
:2051A00022F0C0022A43C1F888209F0608D555496569D1F8882022F440622A43C1F8882068
:2051C0005E0608D54F49A569D1F8882022F440522A43C1F888201D0608D54A49E569D1F857
:2051E000882022F440422A43C1F88820D90508D54449256AD1F8882022F440322A43C1F8AB
:2052000088209A0508D53F49656AD1F8882022F440222A43C1F888205F050FD53949A56A83
:20522000D1F8882022F440122A43C1F88820B5F5801F02BFCA6842F48012CA601E050FD592
:205240003049E56AD1F8882022F440022A43C1F88820B5F5800F02BFCA6842F48012CA60D1
:20526000DD040FD52749256BD1F8882022F040722A43C1F88820B5F1807F02BFCA6842F498
:205280008012CA6099040FD51E49656BD1F8882022F040622A43C1F88820B5F1006F02BFD1
:2052A000CA6842F48012CA605A040FD51549A56BD1F8882022F040622A43C1F88820B5F181
:2052C000006F02BFCA6842F48012CA601B040FD50C4AE16BD2F8883023F040530B43B1F1BD
:2052E000805FC2F8883003D1D36843F48033D36002B0BDE8F081FEF7C7F9C01B40457FF6DF
:205300000AAF1FE70010024000700040104B9A6B42F480729A639A6B22F480729A63D0E984
:205320000032134382681343C2681343026943EA0243084A53601368416923F4FE4343EA99
:2053400001231360136843F060031360704700BF0010024000200040B0F840309BB243F46E
:205360003F4343F08003A0F8403000207047B0F8403023F47E535B045B0CA0F84030002028
:20538000704784B010B5044603A880E80E0000200123A4F84030A4F84000A4F84400A4F84A
:2053A0005000B4F840309BB243F43F4343F08003A4F84030BDE8104004B07047F0B50F782D
:2053C000CD7830F8274024F4EC4424F07004240403463A46240C032D50D8DFE805F0024CA6
:2053E0004A4844F40074284648F2800C44EA0C0423F8224033F822409E4EA4B234403C43BE
:205400004CEA040C23F822C00C7B03EBC707002C40F08180CC8891F801C064086400BCF18E
:20542000000F2DD0B3F8501017FA81F1A1F8004433F822104F0609D533F8221089B231405C
:2054400041F4004141F0C00123F8221033F82210894C89B2012D01EA040101D081F02001A9
:2054600041F4004141F0800123F82210BAE044F4C0640020B8E744F48064FAE70120B3E74A
:20548000B3F8505017FA85F5A5F80444B3F850400D6917FA84F46DBBB4F8061421F4F841DB
:2054A0000904090CA4F80614B4F806146FEA41416FEA514189B2A4F8061433F822104904ED
:2054C0000DD533F8221021F4E04121F070010904090C41F4404141F0800123F8221033F8D3
:2054E000221021F4804121F070010904090C81F44051B5E73E2D05D86908EE0748BF013177
:205500008902D7E76E095D49ED0608BF06F1FF3641EA8621CEE733F82240A4B2344044F429
:20552000014444F0800423F82240B3F850C00C8917FA8CFC64086400ACF80044B3F8504015
:2055400017FA84F74C8964086400A7F804444978002948D133F822104F0409D533F8221045
:2055600089B2314041F4404141F0800123F8221033F822104D060DD533F8221021F4E041A5
:2055800021F070010904090C41F4004141F0C00123F8221033F8221021F4E04121F070019D
:2055A0000904090C41F4004141F0C00123F8221033F8221021F4804121F070010904090C3D
:2055C00048F2800481F44051214323F8221033F8221021F4E04121F040010904090C0C4300
:2055E00023F82240F0BD33F822104C0409D533F8221089B2314041F4404141F0800123F86A
:20560000221033F8221049060DD533F8221021F4E04121F070010904090C41F4004141F0EC
:20562000C00123F8221033F82210134C21F4E04121F070010904090C41F4404141F080015E
:2056400023F8221033F8221089B22140012D18BF81F0200141F4004141F0800123F82210F8
:2056600033F8221021F4804121F070010904090CF6E600BF8F8FFFFFBF8FFFFF0080FFFFD2
:205680004A780B78097BD9BB0AB330F8232051060DD530F8232022F4E04222F0700212040F
:2056A000120C42F4004242F0C00220F8232030F8232022F4E04222F040021204120C42F4A4
:2056C000004242F0800220F823200020704730F8232052040DD530F8232022F4E04222F04A
:2056E00070021204120C42F4404242F0800220F8232030F8232022F4804222F07002DCE7B3
:20570000002A4AD130F8232051040DD530F8232022F4E04222F070021204120C42F440428F
:2057200042F0800220F8232030F8232052060DD530F8232022F4E04222F070021204120C5A
:2057400042F4004242F0C00220F8232030F8232022F4E04222F070021204120C42F40042AF
:2057600042F0C00220F8232030F8232022F4804222F070021204120C48F280010A4320F8BF
:20578000232030F8232022F4E04222F040021204120C114320F8231097E730F823205104BE
:2057A0000DD530F8232022F4E04222F070021204120C42F4404242F0800220F8232030F8BD
:2057C000232052060DD530F8232022F4E04222F070021204120C42F4004242F0C00220F86D
:2057E000232030F8232022F4E04222F070021204120C42F4404242F0800220F8232030F81C
:20580000232022F4E04222F040021204120C48F280010A4320F8232030F8232022F48042DF
:2058200022F07002B3E74B780A788BB130F8223023F4E04323F040031B041B0C83F01003F3
:2058400043F4004343F0800320F822300020704730F8223023F4804323F070031B041B0CB7
:2058600083F48053ECE70B7B3BBB4B780A7833B330F822305B060DD530F8223023F4E043F3
:2058800023F070031B041B0C43F4004343F0C00320F82230CB78012B0FD030F8223023F483
:2058A000E04323F040031B041B0C83F0200343F4004343F0800320F822300020704730F8FA
:2058C00022305B040DD530F8223023F4E04323F070031B041B0C43F4404343F0800320F82D
:2058E000223030F8223023F4804323F070031B041B0C83F44053DAE711B98023A0F84C30EA
:2059000000207047B0F858306FEA43436FEA53439BB2A0F8583000207047B0F8440080B250
:2059200070470020704702F58062013310445B0801EB4303401A994200D170470A880A5238
:205940000231F8E7F8B50D464978AB692A6901290446287B68D19A4236BF991A002113467F
:20596000A9619EB2696908BBEA8833462046FFF7DAFFB4F850302A7804F2024111FA83F390
:2059800003EBC2031E802A7834F8223023F4E04323F040031B041B0C83F0300343F40043A0
:2059A00043F0800324F822300020F8BD2A7834F8223013F0400FB4F8503015BF04F2064040
:2059C00004F2024010FA83F310FA83F315BF23F8326023F832606A892A8933462046FFF7E6
:2059E000A2FF6B782A787BB912B234F8223023F4E04323F070031B041B0C43F4004343F058
:205A0000C00324F82230BEE7012BBCD112B234F8223023F4E04323F070031B041B0C43F478
:205A2000404343F08003ECE79A4236BF9E1A00261346AE612A7880BBB4F8501004F206401E
:205A400010FA81F101EBC2026BB9138823F4F8431B041B0C138013886FEA43436FEA5343C7
:205A60009BB2138008E03E2B12D85908D80748BF0131890289B211802A7834F8223023F404
:205A8000804323F070031B041B0C83F4405385E75909DB0663D1013961E00029ECD1B4F87D
:205AA000507016B2D10004F2024212FA87F704F2064E33BB37F8363023F4F8431B041B0C64
:205AC00027F8363037F836306FEA43436FEA53439BB227F83630B4F850201EFA82F232F83A
:205AE000363023F4F8431B041B0C22F8363032F836306FEA43436FEA53439BB222F83630FD
:205B0000BAE73E2B14D85A0813F001031ABF501C8002900280B227F83600B4F850001EFA32
:205B200080F0014403B10132920292B20A80A3E74FEA531C0C4813F01F0306BF0CF1FF32C9
:205B400040EA822040EA8C2080B227F83600B4F850201EFA82F20A446146002B9BD0024B9C
:205B600043EA81237CE700BF0080FFFF02F58062F0B510445D080C462E46471A3A190234CD
:205B800036B9DB0744BF30F8153001F81530F0BD128892B204F8022C120A04F8012C013E4D
:205BA000ECE70000002301461A46184600F08CB838B5084D084BED1AAC1007D0043D1D44E5
:205BC000013C55F804399847002CF9D1BDE8384000F020BA686100086461000870B50D4E24
:205BE0000D4D761BB61006D0002455F8043B01349847A642F9D1094E094D761B00F004FA7C
:205C0000B61006D0002455F8043B01349847A642F9D170BD5C6100085C61000864610008EE
:205C20005C610008830730B548D0541E002A3FD0CAB2034601E0013C3AD303F8012B9D07B2
:205C4000F9D1032C2DD9CDB245EA05250F2C45EA054536D9A4F1100222F00F0C03F1200EB4
:205C6000E6444FEA121C03F1100242E9045542E9025510327245F8D10CF1010214F00C0FA6
:205C800003EB021204F00F0C13D0ACF1040323F003030433134442F8045B9342FBD10CF08F
:205CA00003042CB1C9B21C4403F8011B9C42FBD130BD64461346002CF4D1F9E70346144600
:205CC000BFE71A46A446E0E72DE9F8431D4D0646286898460F46914600F042F81A4B1B685A
:205CE000D3F848411CB3286865681F2D24DC4EB96B1C0235636044F8257000F033F8002044
:205D0000BDE8F88304EB85010123C1F88890D4F88821AB401A43022EC4F88821C1F8088165
:205D2000E6D1D4F88C211A43C4F88C21E0E703F5A674C3F84841D6E700F014F84FF0FF3029
:205D4000DEE700BFD005002050610008024B13B10248FFF727BF704700000000B15B00080F
:205D6000704700BF704700BF2DE9F04786468C460846089E154674461946002B40F0C28047
:205D80008542B2FA82F245D94AB1C2F1200300FA02FC2EFA03F3954043EA0C0C94404FEAF0
:205DA000154EA8B2BCFBFEF8230C0EFB18CC08FB00F943EA0C43994528D9EB1808F1FF37D4
:205DC00004D2994502D9A8F102072B44A3EB0903A4B2B3FBFEFC0EFB1C330CFB00F044EA0E
:205DE0000344A04214D92C190CF1FF3304D2A04202D9ACF102032C44241A43EA07401EB1F3
:205E0000D440002334607360BDE8F0874746DDE76346F1E792BB431B01214FEA154EAFB22C
:205E2000B3FBFEFC200C0EFB1C330CFB07F840EA0343984562D9EB180CF1FF3004D29845C6
:205E400002D9ACF102002B44A3EB0803A4B2B3FBFEFC0EFB1C330CFB07F744EA0344A74207
:205E60004ED92C190CF1FF3304D2A74202D9ACF102032C44E41B43EA0040C0E7C2F12003F2
:205E800020FA03F1954090402EFA03F303434FEA154EAFB2B1FBFEFC0EFB1C10190C0CFBE7
:205EA00007F841EA0041884504FA02F422D969180CF1FF3004D2884502D9ACF10200294484
:205EC000A1EB08019BB2B1FBFEFC0EFB1C110CFB07F743EA01439F420ED9EB180CF1FF3196
:205EE00004D29F4202D9ACF102012B44DB1B41EA004192E76046E3E76146F7E76046A3E701
:205F00006346B7E7834206D916B9002108467BE7C6E900E0F9E7B3FA83F78FB9834201D37F
:205F2000724508D8BEEB020460EB030301209C461EB9002168E73846FAE7C6E9004CF8E747
:205F4000C7F1200CBB4022FA0CF41C432EFA0CF120FA0CF3B84001434FEA14490EFA07F5D3
:205F6000B3FBF9F81FFA84FE09FB18300B0C08FB0EFA43EA00439A4502FA07F240D9E31821
:205F800008F1FF3004D29A4502D9A8F102002344A3EB0A0389B2B3FBF9F809FB183308FB80
:205FA0000EFE41EA03418E452CD9611808F1FF3304D28E4502D9A8F10203214443EA0040F6
:205FC000A0FB0298A1EB0E014145CE46434602D306D14D4504D2B9EB020E68EB0403013873
:205FE000002EA6D0B5EB0E0261EB030101FA0CFC22FA07F34CEA0303F940C6E9003198E710
:206000004046C5E74346D9E7F8B500BFF8BC08BC9E467047F8B500BFF8BC08BC9E46704707
:206020004F70656E6C69676874204C6162730043414E61626C653220623135386161372043
:206040006769746875622E636F6D2F6E6F726D616C646F74636F6D2F63616E61626C6532EB
:206060002E6769740043444320436F6E6669670043444320496E74657266616365000000F3
:20608000000000000000010203040607080943414E61626C65204572726F722052656769A1
:2060A000737465723A20255800313665373439372D6469727479206769746875622E636FA8
:2060C0006D2F6E6F726D616C646F74636F6D2F63616E61626C65322E6769740D00666E6932
:2060E0002B00666E69006E616E00666E692D0000000000000000F03F0000000000002440FE
:2061000000000000000059400000000000408F40000000000088C34000000000006AF840AA
:206120000000000080842E4100000000D01263410000000084D797410000000065CDCD41F3
:206140000001020304050607080C101418203040A801002014FCFF7F010000004D5D000839
:20616000710C00084D0C0008D9100008D31000081D1100083D1100081A03000000000000B4
:20618000000000000000000000000000000000000000000004030904120100020202004092
:2061A000D0167E110002010203010000011300080D130008811300089D1300084513000869
:2061C000B9130008D5130008000000000024F40001000000A960000809074300020104C0B7
:2061E00032090400000102020100052400100105240100010424020205240600010705820B
:206200000308001009040100020A00000007050102400000070581024000000009024300DD
:2062200002010080FA0904000001020201000524001001052401000104240202052406000E
:20624000010705820308001009040100020A0000000705010240000007058102400000005C
:206260000902430002010080FA0904000001020201000524001001052401000104240202AF
:2062800005240600010705820308001009040100020A00000007050102400000070581022D
:2062A000400000002F350008ED3400084B340008000000008B3300080F340008E533000851
:2062C000000000000000000000000000C1330008B5330008CD330008D93300080A060002A4
:2062E00000000040010000000100000010000000000000000000000000000000000000004C
:20630000010000000000000000000000000000000000000094040020FC040020640500201B
:2063200000000000000000000000000000000000000000000000000000000000000000005D
:2063400000000000000000000000000000000000000000000000000000000000000000003D
:2063600000000000000000000000000000000000000000000000000000000000000000001D
:206380000000000000000000000000000000000000000000000000000000000000000000FD
:2063A0000000000000000000000000000000000000000000000000000100000000000000DC
:2063C0000E33CDAB34126DE6ECDE05000B0000000000000000000000000000000000000091
:2063E00000000000000000000000000000000000000000000000000000000000000000009D
:2064000000000000000000000000000000000000000000000000000000000000000000007C
:2064200000000000000000000000000000000000000000000000000000000000000000005C
:2064400000000000000000000000000000000000000000000000000000000000000000003C
:2064600000000000000000000000000000000000000000000000000000000000000000001C
:206480000000000000000000000000000000000000000000000000000000000000000000FC
:2064A0000000000000000000000000000000000000000000000000000000000000000000DC
:2064C0000000000000000000000000000000000000000000000000000000000000000000BC
:2064E00000000000000000000000000000000000000000000000000000000000000000009C
:2065000000000000000000000000000000000000000000000000000000000000000000007B
:2065200000000000000000000000000000000000000000000000000000000000000000005B
:2065400000000000000000000000000000000000000000000000000000000000000000003B
:2065600000000000000000000000000000000000000000000000000000000000000000001B
:206580000000000000000000000000000000000000000000000000000000000000000000FB
:2065A0000000000000000000000000000000000000000000000000000000000000000000DB
:2065C0000000000000000000000000000000000000000000000000000000000000000000BB
:2065E00000000000000000000000000000000000000000000000000000000000000000009B
:2066000000000000000000000000000000000000000000000000000000000000000000007A
:2066200000000000000000000000000000000000000000000000000000000000000000005A
:2066400000000000000000000000000000000000000000000000000000000000000000003A
:2066600000000000000000000000000000000000000000000000000000000000000000001A
:206680000000000000000000000000000000000000000000000000000000000000000000FA
:2066A0000000000000000000000000000000000000000000000000000000000000000000DA
:2066C0000000000000000000000000000000000000000000000000000000000000000000BA
:2066E00000000000000000000000000000000000000000000000000000000000000000009A
:20670000000000000000000000000000000000000000000000000000000000000000000079
:2067200000000000000000000000000000000000000000000000000050320020FFFFFFFFBB
:20674000FFFFFFFFFFFFFFFFFFFFFFFFFFFFFFFFFFFFFFFFFFFFFFFFFFFFFFFFFFFFFFFF59
:20676000FFFFFFFFFFFFFFFFFFFFFFFFFFFFFFFFFFFFFFFFFFFFFFFFFFFFFFFFFFFFFFFF39
:20678000FFFFFFFFFFFFFFFFFFFFFFFFFFFFFFFFFFFFFFFFFFFFFFFFFFFFFFFFFFFFFFFF19
:2067A000FFFFFFFFFFFFFFFFFFFFFFFFFFFFFFFFFFFFFFFFFFFFFFFFFFFFFFFFFFFFFFFFF9
:020000041FFFDC
:20780000AAFCEFFF55031000FFFFFFFF0000000000C0FF7FFF3F0080FFFFC0FF00003F0078
:10782000FFFFC0FF00003F0080FFFEFF7F00010060
:00000001FF
